{
	"contracts/BlueToken.sol": {
		"BlueToken": {
			"abi": [
				{
					"inputs": [
						{
							"internalType": "string",
							"name": "_name",
							"type": "string"
						},
						{
							"internalType": "uint256",
							"name": "_initiallSupply",
							"type": "uint256"
						}
					],
					"stateMutability": "nonpayable",
					"type": "constructor"
				},
				{
					"anonymous": false,
					"inputs": [
						{
							"indexed": true,
							"internalType": "address",
							"name": "_owner",
							"type": "address"
						},
						{
							"indexed": true,
							"internalType": "address",
							"name": "_spender",
							"type": "address"
						},
						{
							"indexed": false,
							"internalType": "uint256",
							"name": "_value",
							"type": "uint256"
						}
					],
					"name": "Approve",
					"type": "event"
				},
				{
					"anonymous": false,
					"inputs": [
						{
							"indexed": true,
							"internalType": "address",
							"name": "_from",
							"type": "address"
						},
						{
							"indexed": true,
							"internalType": "address",
							"name": "_to",
							"type": "address"
						},
						{
							"indexed": false,
							"internalType": "uint256",
							"name": "_value",
							"type": "uint256"
						}
					],
					"name": "Transfer",
					"type": "event"
				},
				{
					"inputs": [
						{
							"internalType": "address",
							"name": "_owner",
							"type": "address"
						},
						{
							"internalType": "address",
							"name": "_spender",
							"type": "address"
						}
					],
					"name": "allowance",
					"outputs": [
						{
							"internalType": "uint256",
							"name": "",
							"type": "uint256"
						}
					],
					"stateMutability": "view",
					"type": "function"
				},
				{
					"inputs": [
						{
							"internalType": "address",
							"name": "",
							"type": "address"
						},
						{
							"internalType": "address",
							"name": "",
							"type": "address"
						}
					],
					"name": "allowances",
					"outputs": [
						{
							"internalType": "uint256",
							"name": "",
							"type": "uint256"
						}
					],
					"stateMutability": "view",
					"type": "function"
				},
				{
					"inputs": [
						{
							"internalType": "address",
							"name": "_spender",
							"type": "address"
						},
						{
							"internalType": "uint256",
							"name": "_value",
							"type": "uint256"
						}
					],
					"name": "approve",
					"outputs": [
						{
							"internalType": "bool",
							"name": "",
							"type": "bool"
						}
					],
					"stateMutability": "nonpayable",
					"type": "function"
				},
				{
					"inputs": [
						{
							"internalType": "address",
							"name": "_owner",
							"type": "address"
						}
					],
					"name": "balanceOfToken",
					"outputs": [
						{
							"internalType": "uint256",
							"name": "",
							"type": "uint256"
						}
					],
					"stateMutability": "view",
					"type": "function"
				},
				{
					"inputs": [
						{
							"internalType": "address",
							"name": "",
							"type": "address"
						}
					],
					"name": "balances",
					"outputs": [
						{
							"internalType": "uint256",
							"name": "",
							"type": "uint256"
						}
					],
					"stateMutability": "view",
					"type": "function"
				},
				{
					"inputs": [],
					"name": "name",
					"outputs": [
						{
							"internalType": "string",
							"name": "",
							"type": "string"
						}
					],
					"stateMutability": "view",
					"type": "function"
				},
				{
					"inputs": [],
					"name": "totalOfSupply",
					"outputs": [
						{
							"internalType": "uint256",
							"name": "",
							"type": "uint256"
						}
					],
					"stateMutability": "view",
					"type": "function"
				},
				{
					"inputs": [],
					"name": "totalSupply",
					"outputs": [
						{
							"internalType": "uint256",
							"name": "",
							"type": "uint256"
						}
					],
					"stateMutability": "view",
					"type": "function"
				},
				{
					"inputs": [
						{
							"internalType": "address",
							"name": "_from",
							"type": "address"
						},
						{
							"internalType": "address",
							"name": "_to",
							"type": "address"
						},
						{
							"internalType": "uint256",
							"name": "_value",
							"type": "uint256"
						}
					],
					"name": "transferFrom",
					"outputs": [
						{
							"internalType": "bool",
							"name": "",
							"type": "bool"
						}
					],
					"stateMutability": "nonpayable",
					"type": "function"
				},
				{
					"inputs": [
						{
							"internalType": "address",
							"name": "_to",
							"type": "address"
						},
						{
							"internalType": "uint256",
							"name": "_value",
							"type": "uint256"
						}
					],
					"name": "transferToken",
					"outputs": [
						{
							"internalType": "bool",
							"name": "",
							"type": "bool"
						}
					],
					"stateMutability": "nonpayable",
					"type": "function"
				}
			],
			"devdoc": {
				"kind": "dev",
				"methods": {},
				"version": 1
			},
			"evm": {
				"assembly": "    /* \"contracts/BlueToken.sol\":89:2160  contract BlueToken{... */\n  mstore(0x40, 0x80)\n    /* \"contracts/BlueToken.sol\":153:186  string public name = \"Blue Token\" */\n  mload(0x40)\n  dup1\n  0x40\n  add\n  0x40\n  mstore\n  dup1\n  0x0a\n  dup2\n  mstore\n  0x20\n  add\n  0x426c756520546f6b656e00000000000000000000000000000000000000000000\n  dup2\n  mstore\n  pop\n  0x00\n  swap1\n  dup1\n  mload\n  swap1\n  0x20\n  add\n  swap1\n  tag_1\n  swap3\n  swap2\n  swap1\n  tag_2\n  jump\t// in\ntag_1:\n  pop\n    /* \"contracts/BlueToken.sol\":503:668  constructor(string memory _name, uint256 _initiallSupply){... */\n  callvalue\n  dup1\n  iszero\n  tag_3\n  jumpi\n  0x00\n  dup1\n  revert\ntag_3:\n  pop\n  mload(0x40)\n  sub(codesize, bytecodeSize)\n  dup1\n  bytecodeSize\n  dup4\n  codecopy\n  dup2\n  dup2\n  add\n  0x40\n  mstore\n  dup2\n  add\n  swap1\n  tag_4\n  swap2\n  swap1\n  tag_5\n  jump\t// in\ntag_4:\n    /* \"contracts/BlueToken.sol\":576:581  _name */\n  dup2\n    /* \"contracts/BlueToken.sol\":569:573  name */\n  0x00\n    /* \"contracts/BlueToken.sol\":569:581  name = _name */\n  swap1\n  dup1\n  mload\n  swap1\n  0x20\n  add\n  swap1\n  tag_8\n  swap3\n  swap2\n  swap1\n  tag_2\n  jump\t// in\ntag_8:\n  pop\n    /* \"contracts/BlueToken.sol\":604:619  _initiallSupply */\n  dup1\n    /* \"contracts/BlueToken.sol\":590:601  totalSupply */\n  0x01\n    /* \"contracts/BlueToken.sol\":590:619  totalSupply = _initiallSupply */\n  dup2\n  swap1\n  sstore\n  pop\n    /* \"contracts/BlueToken.sol\":651:662  totalSupply */\n  sload(0x01)\n    /* \"contracts/BlueToken.sol\":628:636  balances */\n  0x02\n    /* \"contracts/BlueToken.sol\":628:648  balances[msg.sender] */\n  0x00\n    /* \"contracts/BlueToken.sol\":637:647  msg.sender */\n  caller\n    /* \"contracts/BlueToken.sol\":628:648  balances[msg.sender] */\n  0xffffffffffffffffffffffffffffffffffffffff\n  and\n  0xffffffffffffffffffffffffffffffffffffffff\n  and\n  dup2\n  mstore\n  0x20\n  add\n  swap1\n  dup2\n  mstore\n  0x20\n  add\n  0x00\n  keccak256\n    /* \"contracts/BlueToken.sol\":628:662  balances[msg.sender] = totalSupply */\n  dup2\n  swap1\n  sstore\n  pop\n    /* \"contracts/BlueToken.sol\":503:668  constructor(string memory _name, uint256 _initiallSupply){... */\n  pop\n  pop\n    /* \"contracts/BlueToken.sol\":89:2160  contract BlueToken{... */\n  jump(tag_9)\ntag_2:\n  dup3\n  dup1\n  sload\n  tag_10\n  swap1\n  tag_11\n  jump\t// in\ntag_10:\n  swap1\n  0x00\n  mstore\n  keccak256(0x00, 0x20)\n  swap1\n  0x1f\n  add\n  0x20\n  swap1\n  div\n  dup2\n  add\n  swap3\n  dup3\n  tag_13\n  jumpi\n  0x00\n  dup6\n  sstore\n  jump(tag_12)\ntag_13:\n  dup3\n  0x1f\n  lt\n  tag_14\n  jumpi\n  dup1\n  mload\n  not(0xff)\n  and\n  dup4\n  dup1\n  add\n  or\n  dup6\n  sstore\n  jump(tag_12)\ntag_14:\n  dup3\n  dup1\n  add\n  0x01\n  add\n  dup6\n  sstore\n  dup3\n  iszero\n  tag_12\n  jumpi\n  swap2\n  dup3\n  add\ntag_15:\n  dup3\n  dup2\n  gt\n  iszero\n  tag_16\n  jumpi\n  dup3\n  mload\n  dup3\n  sstore\n  swap2\n  0x20\n  add\n  swap2\n  swap1\n  0x01\n  add\n  swap1\n  jump(tag_15)\ntag_16:\ntag_12:\n  pop\n  swap1\n  pop\n  tag_17\n  swap2\n  swap1\n  tag_18\n  jump\t// in\ntag_17:\n  pop\n  swap1\n  jump\t// out\ntag_18:\ntag_19:\n  dup1\n  dup3\n  gt\n  iszero\n  tag_20\n  jumpi\n  0x00\n  dup2\n  0x00\n  swap1\n  sstore\n  pop\n  0x01\n  add\n  jump(tag_19)\ntag_20:\n  pop\n  swap1\n  jump\t// out\n    /* \"#utility.yul\":7:428   */\ntag_22:\n    /* \"#utility.yul\":96:101   */\n  0x00\n    /* \"#utility.yul\":121:187   */\n  tag_24\n    /* \"#utility.yul\":137:186   */\n  tag_25\n    /* \"#utility.yul\":179:185   */\n  dup5\n    /* \"#utility.yul\":137:186   */\n  tag_26\n  jump\t// in\ntag_25:\n    /* \"#utility.yul\":121:187   */\n  tag_27\n  jump\t// in\ntag_24:\n    /* \"#utility.yul\":112:187   */\n  swap1\n  pop\n    /* \"#utility.yul\":210:216   */\n  dup3\n    /* \"#utility.yul\":203:208   */\n  dup2\n    /* \"#utility.yul\":196:217   */\n  mstore\n    /* \"#utility.yul\":248:252   */\n  0x20\n    /* \"#utility.yul\":241:246   */\n  dup2\n    /* \"#utility.yul\":237:253   */\n  add\n    /* \"#utility.yul\":286:289   */\n  dup5\n    /* \"#utility.yul\":277:283   */\n  dup5\n    /* \"#utility.yul\":272:275   */\n  dup5\n    /* \"#utility.yul\":268:284   */\n  add\n    /* \"#utility.yul\":265:290   */\n  gt\n    /* \"#utility.yul\":262:374   */\n  iszero\n  tag_28\n  jumpi\n    /* \"#utility.yul\":293:372   */\n  tag_29\n  tag_30\n  jump\t// in\ntag_29:\n    /* \"#utility.yul\":262:374   */\ntag_28:\n    /* \"#utility.yul\":383:422   */\n  tag_31\n    /* \"#utility.yul\":415:421   */\n  dup5\n    /* \"#utility.yul\":410:413   */\n  dup3\n    /* \"#utility.yul\":405:408   */\n  dup6\n    /* \"#utility.yul\":383:422   */\n  tag_32\n  jump\t// in\ntag_31:\n    /* \"#utility.yul\":102:428   */\n  pop\n    /* \"#utility.yul\":7:428   */\n  swap4\n  swap3\n  pop\n  pop\n  pop\n  jump\t// out\n    /* \"#utility.yul\":448:803   */\ntag_33:\n    /* \"#utility.yul\":515:520   */\n  0x00\n    /* \"#utility.yul\":564:567   */\n  dup3\n    /* \"#utility.yul\":557:561   */\n  0x1f\n    /* \"#utility.yul\":549:555   */\n  dup4\n    /* \"#utility.yul\":545:562   */\n  add\n    /* \"#utility.yul\":541:568   */\n  slt\n    /* \"#utility.yul\":531:653   */\n  tag_35\n  jumpi\n    /* \"#utility.yul\":572:651   */\n  tag_36\n  tag_37\n  jump\t// in\ntag_36:\n    /* \"#utility.yul\":531:653   */\ntag_35:\n    /* \"#utility.yul\":682:688   */\n  dup2\n    /* \"#utility.yul\":676:689   */\n  mload\n    /* \"#utility.yul\":707:797   */\n  tag_38\n    /* \"#utility.yul\":793:796   */\n  dup5\n    /* \"#utility.yul\":785:791   */\n  dup3\n    /* \"#utility.yul\":778:782   */\n  0x20\n    /* \"#utility.yul\":770:776   */\n  dup7\n    /* \"#utility.yul\":766:783   */\n  add\n    /* \"#utility.yul\":707:797   */\n  tag_22\n  jump\t// in\ntag_38:\n    /* \"#utility.yul\":698:797   */\n  swap2\n  pop\n    /* \"#utility.yul\":521:803   */\n  pop\n    /* \"#utility.yul\":448:803   */\n  swap3\n  swap2\n  pop\n  pop\n  jump\t// out\n    /* \"#utility.yul\":809:952   */\ntag_39:\n    /* \"#utility.yul\":866:871   */\n  0x00\n    /* \"#utility.yul\":897:903   */\n  dup2\n    /* \"#utility.yul\":891:904   */\n  mload\n    /* \"#utility.yul\":882:904   */\n  swap1\n  pop\n    /* \"#utility.yul\":913:946   */\n  tag_41\n    /* \"#utility.yul\":940:945   */\n  dup2\n    /* \"#utility.yul\":913:946   */\n  tag_42\n  jump\t// in\ntag_41:\n    /* \"#utility.yul\":809:952   */\n  swap3\n  swap2\n  pop\n  pop\n  jump\t// out\n    /* \"#utility.yul\":958:1638   */\ntag_5:\n    /* \"#utility.yul\":1047:1053   */\n  0x00\n    /* \"#utility.yul\":1055:1061   */\n  dup1\n    /* \"#utility.yul\":1104:1106   */\n  0x40\n    /* \"#utility.yul\":1092:1101   */\n  dup4\n    /* \"#utility.yul\":1083:1090   */\n  dup6\n    /* \"#utility.yul\":1079:1102   */\n  sub\n    /* \"#utility.yul\":1075:1107   */\n  slt\n    /* \"#utility.yul\":1072:1191   */\n  iszero\n  tag_44\n  jumpi\n    /* \"#utility.yul\":1110:1189   */\n  tag_45\n  tag_46\n  jump\t// in\ntag_45:\n    /* \"#utility.yul\":1072:1191   */\ntag_44:\n    /* \"#utility.yul\":1251:1252   */\n  0x00\n    /* \"#utility.yul\":1240:1249   */\n  dup4\n    /* \"#utility.yul\":1236:1253   */\n  add\n    /* \"#utility.yul\":1230:1254   */\n  mload\n    /* \"#utility.yul\":1281:1299   */\n  0xffffffffffffffff\n    /* \"#utility.yul\":1273:1279   */\n  dup2\n    /* \"#utility.yul\":1270:1300   */\n  gt\n    /* \"#utility.yul\":1267:1384   */\n  iszero\n  tag_47\n  jumpi\n    /* \"#utility.yul\":1303:1382   */\n  tag_48\n  tag_49\n  jump\t// in\ntag_48:\n    /* \"#utility.yul\":1267:1384   */\ntag_47:\n    /* \"#utility.yul\":1408:1482   */\n  tag_50\n    /* \"#utility.yul\":1474:1481   */\n  dup6\n    /* \"#utility.yul\":1465:1471   */\n  dup3\n    /* \"#utility.yul\":1454:1463   */\n  dup7\n    /* \"#utility.yul\":1450:1472   */\n  add\n    /* \"#utility.yul\":1408:1482   */\n  tag_33\n  jump\t// in\ntag_50:\n    /* \"#utility.yul\":1398:1482   */\n  swap3\n  pop\n    /* \"#utility.yul\":1201:1492   */\n  pop\n    /* \"#utility.yul\":1531:1533   */\n  0x20\n    /* \"#utility.yul\":1557:1621   */\n  tag_51\n    /* \"#utility.yul\":1613:1620   */\n  dup6\n    /* \"#utility.yul\":1604:1610   */\n  dup3\n    /* \"#utility.yul\":1593:1602   */\n  dup7\n    /* \"#utility.yul\":1589:1611   */\n  add\n    /* \"#utility.yul\":1557:1621   */\n  tag_39\n  jump\t// in\ntag_51:\n    /* \"#utility.yul\":1547:1621   */\n  swap2\n  pop\n    /* \"#utility.yul\":1502:1631   */\n  pop\n    /* \"#utility.yul\":958:1638   */\n  swap3\n  pop\n  swap3\n  swap1\n  pop\n  jump\t// out\n    /* \"#utility.yul\":1644:1773   */\ntag_27:\n    /* \"#utility.yul\":1678:1684   */\n  0x00\n    /* \"#utility.yul\":1705:1725   */\n  tag_53\n  tag_54\n  jump\t// in\ntag_53:\n    /* \"#utility.yul\":1695:1725   */\n  swap1\n  pop\n    /* \"#utility.yul\":1734:1767   */\n  tag_55\n    /* \"#utility.yul\":1762:1766   */\n  dup3\n    /* \"#utility.yul\":1754:1760   */\n  dup3\n    /* \"#utility.yul\":1734:1767   */\n  tag_56\n  jump\t// in\ntag_55:\n    /* \"#utility.yul\":1644:1773   */\n  swap2\n  swap1\n  pop\n  jump\t// out\n    /* \"#utility.yul\":1779:1854   */\ntag_54:\n    /* \"#utility.yul\":1812:1818   */\n  0x00\n    /* \"#utility.yul\":1845:1847   */\n  0x40\n    /* \"#utility.yul\":1839:1848   */\n  mload\n    /* \"#utility.yul\":1829:1848   */\n  swap1\n  pop\n    /* \"#utility.yul\":1779:1854   */\n  swap1\n  jump\t// out\n    /* \"#utility.yul\":1860:2168   */\ntag_26:\n    /* \"#utility.yul\":1922:1926   */\n  0x00\n    /* \"#utility.yul\":2012:2030   */\n  0xffffffffffffffff\n    /* \"#utility.yul\":2004:2010   */\n  dup3\n    /* \"#utility.yul\":2001:2031   */\n  gt\n    /* \"#utility.yul\":1998:2054   */\n  iszero\n  tag_59\n  jumpi\n    /* \"#utility.yul\":2034:2052   */\n  tag_60\n  tag_61\n  jump\t// in\ntag_60:\n    /* \"#utility.yul\":1998:2054   */\ntag_59:\n    /* \"#utility.yul\":2072:2101   */\n  tag_62\n    /* \"#utility.yul\":2094:2100   */\n  dup3\n    /* \"#utility.yul\":2072:2101   */\n  tag_63\n  jump\t// in\ntag_62:\n    /* \"#utility.yul\":2064:2101   */\n  swap1\n  pop\n    /* \"#utility.yul\":2156:2160   */\n  0x20\n    /* \"#utility.yul\":2150:2154   */\n  dup2\n    /* \"#utility.yul\":2146:2161   */\n  add\n    /* \"#utility.yul\":2138:2161   */\n  swap1\n  pop\n    /* \"#utility.yul\":1860:2168   */\n  swap2\n  swap1\n  pop\n  jump\t// out\n    /* \"#utility.yul\":2174:2251   */\ntag_64:\n    /* \"#utility.yul\":2211:2218   */\n  0x00\n    /* \"#utility.yul\":2240:2245   */\n  dup2\n    /* \"#utility.yul\":2229:2245   */\n  swap1\n  pop\n    /* \"#utility.yul\":2174:2251   */\n  swap2\n  swap1\n  pop\n  jump\t// out\n    /* \"#utility.yul\":2257:2564   */\ntag_32:\n    /* \"#utility.yul\":2325:2326   */\n  0x00\n    /* \"#utility.yul\":2335:2448   */\ntag_67:\n    /* \"#utility.yul\":2349:2355   */\n  dup4\n    /* \"#utility.yul\":2346:2347   */\n  dup2\n    /* \"#utility.yul\":2343:2356   */\n  lt\n    /* \"#utility.yul\":2335:2448   */\n  iszero\n  tag_69\n  jumpi\n    /* \"#utility.yul\":2434:2435   */\n  dup1\n    /* \"#utility.yul\":2429:2432   */\n  dup3\n    /* \"#utility.yul\":2425:2436   */\n  add\n    /* \"#utility.yul\":2419:2437   */\n  mload\n    /* \"#utility.yul\":2415:2416   */\n  dup2\n    /* \"#utility.yul\":2410:2413   */\n  dup5\n    /* \"#utility.yul\":2406:2417   */\n  add\n    /* \"#utility.yul\":2399:2438   */\n  mstore\n    /* \"#utility.yul\":2371:2373   */\n  0x20\n    /* \"#utility.yul\":2368:2369   */\n  dup2\n    /* \"#utility.yul\":2364:2374   */\n  add\n    /* \"#utility.yul\":2359:2374   */\n  swap1\n  pop\n    /* \"#utility.yul\":2335:2448   */\n  jump(tag_67)\ntag_69:\n    /* \"#utility.yul\":2466:2472   */\n  dup4\n    /* \"#utility.yul\":2463:2464   */\n  dup2\n    /* \"#utility.yul\":2460:2473   */\n  gt\n    /* \"#utility.yul\":2457:2558   */\n  iszero\n  tag_70\n  jumpi\n    /* \"#utility.yul\":2546:2547   */\n  0x00\n    /* \"#utility.yul\":2537:2543   */\n  dup5\n    /* \"#utility.yul\":2532:2535   */\n  dup5\n    /* \"#utility.yul\":2528:2544   */\n  add\n    /* \"#utility.yul\":2521:2548   */\n  mstore\n    /* \"#utility.yul\":2457:2558   */\ntag_70:\n    /* \"#utility.yul\":2306:2564   */\n  pop\n    /* \"#utility.yul\":2257:2564   */\n  pop\n  pop\n  pop\n  jump\t// out\n    /* \"#utility.yul\":2570:2890   */\ntag_11:\n    /* \"#utility.yul\":2614:2620   */\n  0x00\n    /* \"#utility.yul\":2651:2652   */\n  0x02\n    /* \"#utility.yul\":2645:2649   */\n  dup3\n    /* \"#utility.yul\":2641:2653   */\n  div\n    /* \"#utility.yul\":2631:2653   */\n  swap1\n  pop\n    /* \"#utility.yul\":2698:2699   */\n  0x01\n    /* \"#utility.yul\":2692:2696   */\n  dup3\n    /* \"#utility.yul\":2688:2700   */\n  and\n    /* \"#utility.yul\":2719:2737   */\n  dup1\n    /* \"#utility.yul\":2709:2790   */\n  tag_72\n  jumpi\n    /* \"#utility.yul\":2775:2779   */\n  0x7f\n    /* \"#utility.yul\":2767:2773   */\n  dup3\n    /* \"#utility.yul\":2763:2780   */\n  and\n    /* \"#utility.yul\":2753:2780   */\n  swap2\n  pop\n    /* \"#utility.yul\":2709:2790   */\ntag_72:\n    /* \"#utility.yul\":2837:2839   */\n  0x20\n    /* \"#utility.yul\":2829:2835   */\n  dup3\n    /* \"#utility.yul\":2826:2840   */\n  lt\n    /* \"#utility.yul\":2806:2824   */\n  dup2\n    /* \"#utility.yul\":2803:2841   */\n  eq\n    /* \"#utility.yul\":2800:2884   */\n  iszero\n  tag_73\n  jumpi\n    /* \"#utility.yul\":2856:2874   */\n  tag_74\n  tag_75\n  jump\t// in\ntag_74:\n    /* \"#utility.yul\":2800:2884   */\ntag_73:\n    /* \"#utility.yul\":2621:2890   */\n  pop\n    /* \"#utility.yul\":2570:2890   */\n  swap2\n  swap1\n  pop\n  jump\t// out\n    /* \"#utility.yul\":2896:3177   */\ntag_56:\n    /* \"#utility.yul\":2979:3006   */\n  tag_77\n    /* \"#utility.yul\":3001:3005   */\n  dup3\n    /* \"#utility.yul\":2979:3006   */\n  tag_63\n  jump\t// in\ntag_77:\n    /* \"#utility.yul\":2971:2977   */\n  dup2\n    /* \"#utility.yul\":2967:3007   */\n  add\n    /* \"#utility.yul\":3109:3115   */\n  dup2\n    /* \"#utility.yul\":3097:3107   */\n  dup2\n    /* \"#utility.yul\":3094:3116   */\n  lt\n    /* \"#utility.yul\":3073:3091   */\n  0xffffffffffffffff\n    /* \"#utility.yul\":3061:3071   */\n  dup3\n    /* \"#utility.yul\":3058:3092   */\n  gt\n    /* \"#utility.yul\":3055:3117   */\n  or\n    /* \"#utility.yul\":3052:3140   */\n  iszero\n  tag_78\n  jumpi\n    /* \"#utility.yul\":3120:3138   */\n  tag_79\n  tag_61\n  jump\t// in\ntag_79:\n    /* \"#utility.yul\":3052:3140   */\ntag_78:\n    /* \"#utility.yul\":3160:3170   */\n  dup1\n    /* \"#utility.yul\":3156:3158   */\n  0x40\n    /* \"#utility.yul\":3149:3171   */\n  mstore\n    /* \"#utility.yul\":2939:3177   */\n  pop\n    /* \"#utility.yul\":2896:3177   */\n  pop\n  pop\n  jump\t// out\n    /* \"#utility.yul\":3183:3363   */\ntag_75:\n    /* \"#utility.yul\":3231:3308   */\n  0x4e487b7100000000000000000000000000000000000000000000000000000000\n    /* \"#utility.yul\":3228:3229   */\n  0x00\n    /* \"#utility.yul\":3221:3309   */\n  mstore\n    /* \"#utility.yul\":3328:3332   */\n  0x22\n    /* \"#utility.yul\":3325:3326   */\n  0x04\n    /* \"#utility.yul\":3318:3333   */\n  mstore\n    /* \"#utility.yul\":3352:3356   */\n  0x24\n    /* \"#utility.yul\":3349:3350   */\n  0x00\n    /* \"#utility.yul\":3342:3357   */\n  revert\n    /* \"#utility.yul\":3369:3549   */\ntag_61:\n    /* \"#utility.yul\":3417:3494   */\n  0x4e487b7100000000000000000000000000000000000000000000000000000000\n    /* \"#utility.yul\":3414:3415   */\n  0x00\n    /* \"#utility.yul\":3407:3495   */\n  mstore\n    /* \"#utility.yul\":3514:3518   */\n  0x41\n    /* \"#utility.yul\":3511:3512   */\n  0x04\n    /* \"#utility.yul\":3504:3519   */\n  mstore\n    /* \"#utility.yul\":3538:3542   */\n  0x24\n    /* \"#utility.yul\":3535:3536   */\n  0x00\n    /* \"#utility.yul\":3528:3543   */\n  revert\n    /* \"#utility.yul\":3555:3672   */\ntag_37:\n    /* \"#utility.yul\":3664:3665   */\n  0x00\n    /* \"#utility.yul\":3661:3662   */\n  dup1\n    /* \"#utility.yul\":3654:3666   */\n  revert\n    /* \"#utility.yul\":3678:3795   */\ntag_30:\n    /* \"#utility.yul\":3787:3788   */\n  0x00\n    /* \"#utility.yul\":3784:3785   */\n  dup1\n    /* \"#utility.yul\":3777:3789   */\n  revert\n    /* \"#utility.yul\":3801:3918   */\ntag_49:\n    /* \"#utility.yul\":3910:3911   */\n  0x00\n    /* \"#utility.yul\":3907:3908   */\n  dup1\n    /* \"#utility.yul\":3900:3912   */\n  revert\n    /* \"#utility.yul\":3924:4041   */\ntag_46:\n    /* \"#utility.yul\":4033:4034   */\n  0x00\n    /* \"#utility.yul\":4030:4031   */\n  dup1\n    /* \"#utility.yul\":4023:4035   */\n  revert\n    /* \"#utility.yul\":4047:4149   */\ntag_63:\n    /* \"#utility.yul\":4088:4094   */\n  0x00\n    /* \"#utility.yul\":4139:4141   */\n  0x1f\n    /* \"#utility.yul\":4135:4142   */\n  not\n    /* \"#utility.yul\":4130:4132   */\n  0x1f\n    /* \"#utility.yul\":4123:4128   */\n  dup4\n    /* \"#utility.yul\":4119:4133   */\n  add\n    /* \"#utility.yul\":4115:4143   */\n  and\n    /* \"#utility.yul\":4105:4143   */\n  swap1\n  pop\n    /* \"#utility.yul\":4047:4149   */\n  swap2\n  swap1\n  pop\n  jump\t// out\n    /* \"#utility.yul\":4155:4277   */\ntag_42:\n    /* \"#utility.yul\":4228:4252   */\n  tag_88\n    /* \"#utility.yul\":4246:4251   */\n  dup2\n    /* \"#utility.yul\":4228:4252   */\n  tag_64\n  jump\t// in\ntag_88:\n    /* \"#utility.yul\":4221:4226   */\n  dup2\n    /* \"#utility.yul\":4218:4253   */\n  eq\n    /* \"#utility.yul\":4208:4271   */\n  tag_89\n  jumpi\n    /* \"#utility.yul\":4267:4268   */\n  0x00\n    /* \"#utility.yul\":4264:4265   */\n  dup1\n    /* \"#utility.yul\":4257:4269   */\n  revert\n    /* \"#utility.yul\":4208:4271   */\ntag_89:\n    /* \"#utility.yul\":4155:4277   */\n  pop\n  jump\t// out\n    /* \"contracts/BlueToken.sol\":89:2160  contract BlueToken{... */\ntag_9:\n  dataSize(sub_0)\n  dup1\n  dataOffset(sub_0)\n  0x00\n  codecopy\n  0x00\n  return\nstop\n\nsub_0: assembly {\n        /* \"contracts/BlueToken.sol\":89:2160  contract BlueToken{... */\n      mstore(0x40, 0x80)\n      callvalue\n      dup1\n      iszero\n      tag_1\n      jumpi\n      0x00\n      dup1\n      revert\n    tag_1:\n      pop\n      jumpi(tag_2, lt(calldatasize, 0x04))\n      shr(0xe0, calldataload(0x00))\n      dup1\n      0x27e235e3\n      gt\n      tag_13\n      jumpi\n      dup1\n      0x27e235e3\n      eq\n      tag_8\n      jumpi\n      dup1\n      0x55b6ed5c\n      eq\n      tag_9\n      jumpi\n      dup1\n      0x9b5f2af4\n      eq\n      tag_10\n      jumpi\n      dup1\n      0xb99152d0\n      eq\n      tag_11\n      jumpi\n      dup1\n      0xdd62ed3e\n      eq\n      tag_12\n      jumpi\n      jump(tag_2)\n    tag_13:\n      dup1\n      0x06fdde03\n      eq\n      tag_3\n      jumpi\n      dup1\n      0x095ea7b3\n      eq\n      tag_4\n      jumpi\n      dup1\n      0x1072cbea\n      eq\n      tag_5\n      jumpi\n      dup1\n      0x18160ddd\n      eq\n      tag_6\n      jumpi\n      dup1\n      0x23b872dd\n      eq\n      tag_7\n      jumpi\n    tag_2:\n      0x00\n      dup1\n      revert\n        /* \"contracts/BlueToken.sol\":153:186  string public name = \"Blue Token\" */\n    tag_3:\n      tag_14\n      tag_15\n      jump\t// in\n    tag_14:\n      mload(0x40)\n      tag_16\n      swap2\n      swap1\n      tag_17\n      jump\t// in\n    tag_16:\n      mload(0x40)\n      dup1\n      swap2\n      sub\n      swap1\n      return\n        /* \"contracts/BlueToken.sol\":1231:1424  function approve(address _spender, uint256 _value) public returns (bool){... */\n    tag_4:\n      tag_18\n      0x04\n      dup1\n      calldatasize\n      sub\n      dup2\n      add\n      swap1\n      tag_19\n      swap2\n      swap1\n      tag_20\n      jump\t// in\n    tag_19:\n      tag_21\n      jump\t// in\n    tag_18:\n      mload(0x40)\n      tag_22\n      swap2\n      swap1\n      tag_23\n      jump\t// in\n    tag_22:\n      mload(0x40)\n      dup1\n      swap2\n      sub\n      swap1\n      return\n        /* \"contracts/BlueToken.sol\":883:1226  function transferToken(address _to, uint256 _value) public returns (bool) {... */\n    tag_5:\n      tag_24\n      0x04\n      dup1\n      calldatasize\n      sub\n      dup2\n      add\n      swap1\n      tag_25\n      swap2\n      swap1\n      tag_20\n      jump\t// in\n    tag_25:\n      tag_26\n      jump\t// in\n    tag_24:\n      mload(0x40)\n      tag_27\n      swap2\n      swap1\n      tag_23\n      jump\t// in\n    tag_27:\n      mload(0x40)\n      dup1\n      swap2\n      sub\n      swap1\n      return\n        /* \"contracts/BlueToken.sol\":190:216  uint256 public totalSupply */\n    tag_6:\n      tag_28\n      tag_29\n      jump\t// in\n    tag_28:\n      mload(0x40)\n      tag_30\n      swap2\n      swap1\n      tag_31\n      jump\t// in\n    tag_30:\n      mload(0x40)\n      dup1\n      swap2\n      sub\n      swap1\n      return\n        /* \"contracts/BlueToken.sol\":1429:2021  function transferFrom(address _from, address _to, uint256 _value) public returns (bool) {... */\n    tag_7:\n      tag_32\n      0x04\n      dup1\n      calldatasize\n      sub\n      dup2\n      add\n      swap1\n      tag_33\n      swap2\n      swap1\n      tag_34\n      jump\t// in\n    tag_33:\n      tag_35\n      jump\t// in\n    tag_32:\n      mload(0x40)\n      tag_36\n      swap2\n      swap1\n      tag_23\n      jump\t// in\n    tag_36:\n      mload(0x40)\n      dup1\n      swap2\n      sub\n      swap1\n      return\n        /* \"contracts/BlueToken.sol\":221:265  mapping (address => uint256) public balances */\n    tag_8:\n      tag_37\n      0x04\n      dup1\n      calldatasize\n      sub\n      dup2\n      add\n      swap1\n      tag_38\n      swap2\n      swap1\n      tag_39\n      jump\t// in\n    tag_38:\n      tag_40\n      jump\t// in\n    tag_37:\n      mload(0x40)\n      tag_41\n      swap2\n      swap1\n      tag_31\n      jump\t// in\n    tag_41:\n      mload(0x40)\n      dup1\n      swap2\n      sub\n      swap1\n      return\n        /* \"contracts/BlueToken.sol\":269:336  mapping (address => mapping (address => uint256)) public allowances */\n    tag_9:\n      tag_42\n      0x04\n      dup1\n      calldatasize\n      sub\n      dup2\n      add\n      swap1\n      tag_43\n      swap2\n      swap1\n      tag_44\n      jump\t// in\n    tag_43:\n      tag_45\n      jump\t// in\n    tag_42:\n      mload(0x40)\n      tag_46\n      swap2\n      swap1\n      tag_31\n      jump\t// in\n    tag_46:\n      mload(0x40)\n      dup1\n      swap2\n      sub\n      swap1\n      return\n        /* \"contracts/BlueToken.sol\":679:767  function totalOfSupply() public view returns (uint256) {... */\n    tag_10:\n      tag_47\n      tag_48\n      jump\t// in\n    tag_47:\n      mload(0x40)\n      tag_49\n      swap2\n      swap1\n      tag_31\n      jump\t// in\n    tag_49:\n      mload(0x40)\n      dup1\n      swap2\n      sub\n      swap1\n      return\n        /* \"contracts/BlueToken.sol\":772:878  function balanceOfToken(address _owner) public view returns (uint256) {... */\n    tag_11:\n      tag_50\n      0x04\n      dup1\n      calldatasize\n      sub\n      dup2\n      add\n      swap1\n      tag_51\n      swap2\n      swap1\n      tag_39\n      jump\t// in\n    tag_51:\n      tag_52\n      jump\t// in\n    tag_50:\n      mload(0x40)\n      tag_53\n      swap2\n      swap1\n      tag_31\n      jump\t// in\n    tag_53:\n      mload(0x40)\n      dup1\n      swap2\n      sub\n      swap1\n      return\n        /* \"contracts/BlueToken.sol\":2026:2157  function allowance(address _owner, address _spender) public view returns (uint256){ ... */\n    tag_12:\n      tag_54\n      0x04\n      dup1\n      calldatasize\n      sub\n      dup2\n      add\n      swap1\n      tag_55\n      swap2\n      swap1\n      tag_44\n      jump\t// in\n    tag_55:\n      tag_56\n      jump\t// in\n    tag_54:\n      mload(0x40)\n      tag_57\n      swap2\n      swap1\n      tag_31\n      jump\t// in\n    tag_57:\n      mload(0x40)\n      dup1\n      swap2\n      sub\n      swap1\n      return\n        /* \"contracts/BlueToken.sol\":153:186  string public name = \"Blue Token\" */\n    tag_15:\n      0x00\n      dup1\n      sload\n      tag_58\n      swap1\n      tag_59\n      jump\t// in\n    tag_58:\n      dup1\n      0x1f\n      add\n      0x20\n      dup1\n      swap2\n      div\n      mul\n      0x20\n      add\n      mload(0x40)\n      swap1\n      dup2\n      add\n      0x40\n      mstore\n      dup1\n      swap3\n      swap2\n      swap1\n      dup2\n      dup2\n      mstore\n      0x20\n      add\n      dup3\n      dup1\n      sload\n      tag_60\n      swap1\n      tag_59\n      jump\t// in\n    tag_60:\n      dup1\n      iszero\n      tag_61\n      jumpi\n      dup1\n      0x1f\n      lt\n      tag_62\n      jumpi\n      0x0100\n      dup1\n      dup4\n      sload\n      div\n      mul\n      dup4\n      mstore\n      swap2\n      0x20\n      add\n      swap2\n      jump(tag_61)\n    tag_62:\n      dup3\n      add\n      swap2\n      swap1\n      0x00\n      mstore\n      keccak256(0x00, 0x20)\n      swap1\n    tag_63:\n      dup2\n      sload\n      dup2\n      mstore\n      swap1\n      0x01\n      add\n      swap1\n      0x20\n      add\n      dup1\n      dup4\n      gt\n      tag_63\n      jumpi\n      dup3\n      swap1\n      sub\n      0x1f\n      and\n      dup3\n      add\n      swap2\n    tag_61:\n      pop\n      pop\n      pop\n      pop\n      pop\n      dup2\n      jump\t// out\n        /* \"contracts/BlueToken.sol\":1231:1424  function approve(address _spender, uint256 _value) public returns (bool){... */\n    tag_21:\n        /* \"contracts/BlueToken.sol\":1298:1302  bool */\n      0x00\n        /* \"contracts/BlueToken.sol\":1345:1351  _value */\n      dup2\n        /* \"contracts/BlueToken.sol\":1310:1320  allowances */\n      0x03\n        /* \"contracts/BlueToken.sol\":1310:1332  allowances[msg.sender] */\n      0x00\n        /* \"contracts/BlueToken.sol\":1321:1331  msg.sender */\n      caller\n        /* \"contracts/BlueToken.sol\":1310:1332  allowances[msg.sender] */\n      0xffffffffffffffffffffffffffffffffffffffff\n      and\n      0xffffffffffffffffffffffffffffffffffffffff\n      and\n      dup2\n      mstore\n      0x20\n      add\n      swap1\n      dup2\n      mstore\n      0x20\n      add\n      0x00\n      keccak256\n        /* \"contracts/BlueToken.sol\":1310:1342  allowances[msg.sender][_spender] */\n      0x00\n        /* \"contracts/BlueToken.sol\":1333:1341  _spender */\n      dup6\n        /* \"contracts/BlueToken.sol\":1310:1342  allowances[msg.sender][_spender] */\n      0xffffffffffffffffffffffffffffffffffffffff\n      and\n      0xffffffffffffffffffffffffffffffffffffffff\n      and\n      dup2\n      mstore\n      0x20\n      add\n      swap1\n      dup2\n      mstore\n      0x20\n      add\n      0x00\n      keccak256\n        /* \"contracts/BlueToken.sol\":1310:1351  allowances[msg.sender][_spender] = _value */\n      dup2\n      swap1\n      sstore\n      pop\n        /* \"contracts/BlueToken.sol\":1383:1391  _spender */\n      dup3\n        /* \"contracts/BlueToken.sol\":1363:1400  Approve(msg.sender, _spender, _value) */\n      0xffffffffffffffffffffffffffffffffffffffff\n      and\n        /* \"contracts/BlueToken.sol\":1371:1381  msg.sender */\n      caller\n        /* \"contracts/BlueToken.sol\":1363:1400  Approve(msg.sender, _spender, _value) */\n      0xffffffffffffffffffffffffffffffffffffffff\n      and\n      0x6e11fb1b7f119e3f2fa29896ef5fdf8b8a2d0d4df6fe90ba8668e7d8b2ffa25e\n        /* \"contracts/BlueToken.sol\":1393:1399  _value */\n      dup5\n        /* \"contracts/BlueToken.sol\":1363:1400  Approve(msg.sender, _spender, _value) */\n      mload(0x40)\n      tag_65\n      swap2\n      swap1\n      tag_31\n      jump\t// in\n    tag_65:\n      mload(0x40)\n      dup1\n      swap2\n      sub\n      swap1\n      log3\n        /* \"contracts/BlueToken.sol\":1414:1418  true */\n      0x01\n        /* \"contracts/BlueToken.sol\":1407:1418  return true */\n      swap1\n      pop\n        /* \"contracts/BlueToken.sol\":1231:1424  function approve(address _spender, uint256 _value) public returns (bool){... */\n      swap3\n      swap2\n      pop\n      pop\n      jump\t// out\n        /* \"contracts/BlueToken.sol\":883:1226  function transferToken(address _to, uint256 _value) public returns (bool) {... */\n    tag_26:\n        /* \"contracts/BlueToken.sol\":951:955  bool */\n      0x00\n        /* \"contracts/BlueToken.sol\":995:1001  _value */\n      dup2\n        /* \"contracts/BlueToken.sol\":971:979  balances */\n      0x02\n        /* \"contracts/BlueToken.sol\":971:991  balances[msg.sender] */\n      0x00\n        /* \"contracts/BlueToken.sol\":980:990  msg.sender */\n      caller\n        /* \"contracts/BlueToken.sol\":971:991  balances[msg.sender] */\n      0xffffffffffffffffffffffffffffffffffffffff\n      and\n      0xffffffffffffffffffffffffffffffffffffffff\n      and\n      dup2\n      mstore\n      0x20\n      add\n      swap1\n      dup2\n      mstore\n      0x20\n      add\n      0x00\n      keccak256\n      sload\n        /* \"contracts/BlueToken.sol\":971:1001  balances[msg.sender] >= _value */\n      lt\n      iszero\n        /* \"contracts/BlueToken.sol\":963:1024  require(balances[msg.sender] >= _value, \"Insufficient Funds\") */\n      tag_67\n      jumpi\n      mload(0x40)\n      0x08c379a000000000000000000000000000000000000000000000000000000000\n      dup2\n      mstore\n      0x04\n      add\n      tag_68\n      swap1\n      tag_69\n      jump\t// in\n    tag_68:\n      mload(0x40)\n      dup1\n      swap2\n      sub\n      swap1\n      revert\n    tag_67:\n        /* \"contracts/BlueToken.sol\":1054:1055  0 */\n      0x00\n        /* \"contracts/BlueToken.sol\":1039:1056  _to != address(0) */\n      0xffffffffffffffffffffffffffffffffffffffff\n      and\n        /* \"contracts/BlueToken.sol\":1039:1042  _to */\n      dup4\n        /* \"contracts/BlueToken.sol\":1039:1056  _to != address(0) */\n      0xffffffffffffffffffffffffffffffffffffffff\n      and\n      eq\n      iszero\n        /* \"contracts/BlueToken.sol\":1031:1088  require(_to != address(0), \"Invalid destination address\") */\n      tag_70\n      jumpi\n      mload(0x40)\n      0x08c379a000000000000000000000000000000000000000000000000000000000\n      dup2\n      mstore\n      0x04\n      add\n      tag_71\n      swap1\n      tag_72\n      jump\t// in\n    tag_71:\n      mload(0x40)\n      dup1\n      swap2\n      sub\n      swap1\n      revert\n    tag_70:\n        /* \"contracts/BlueToken.sol\":1119:1125  _value */\n      dup2\n        /* \"contracts/BlueToken.sol\":1096:1104  balances */\n      0x02\n        /* \"contracts/BlueToken.sol\":1096:1116  balances[msg.sender] */\n      0x00\n        /* \"contracts/BlueToken.sol\":1105:1115  msg.sender */\n      caller\n        /* \"contracts/BlueToken.sol\":1096:1116  balances[msg.sender] */\n      0xffffffffffffffffffffffffffffffffffffffff\n      and\n      0xffffffffffffffffffffffffffffffffffffffff\n      and\n      dup2\n      mstore\n      0x20\n      add\n      swap1\n      dup2\n      mstore\n      0x20\n      add\n      0x00\n      keccak256\n      0x00\n        /* \"contracts/BlueToken.sol\":1096:1125  balances[msg.sender] -=_value */\n      dup3\n      dup3\n      sload\n      tag_73\n      swap2\n      swap1\n      tag_74\n      jump\t// in\n    tag_73:\n      swap3\n      pop\n      pop\n      dup2\n      swap1\n      sstore\n      pop\n        /* \"contracts/BlueToken.sol\":1149:1155  _value */\n      dup2\n        /* \"contracts/BlueToken.sol\":1132:1140  balances */\n      0x02\n        /* \"contracts/BlueToken.sol\":1132:1145  balances[_to] */\n      0x00\n        /* \"contracts/BlueToken.sol\":1141:1144  _to */\n      dup6\n        /* \"contracts/BlueToken.sol\":1132:1145  balances[_to] */\n      0xffffffffffffffffffffffffffffffffffffffff\n      and\n      0xffffffffffffffffffffffffffffffffffffffff\n      and\n      dup2\n      mstore\n      0x20\n      add\n      swap1\n      dup2\n      mstore\n      0x20\n      add\n      0x00\n      keccak256\n      0x00\n        /* \"contracts/BlueToken.sol\":1132:1155  balances[_to] += _value */\n      dup3\n      dup3\n      sload\n      tag_75\n      swap2\n      swap1\n      tag_76\n      jump\t// in\n    tag_75:\n      swap3\n      pop\n      pop\n      dup2\n      swap1\n      sstore\n      pop\n        /* \"contracts/BlueToken.sol\":1189:1192  _to */\n      dup3\n        /* \"contracts/BlueToken.sol\":1168:1201  Transfer(msg.sender, _to, _value) */\n      0xffffffffffffffffffffffffffffffffffffffff\n      and\n        /* \"contracts/BlueToken.sol\":1177:1187  msg.sender */\n      caller\n        /* \"contracts/BlueToken.sol\":1168:1201  Transfer(msg.sender, _to, _value) */\n      0xffffffffffffffffffffffffffffffffffffffff\n      and\n      0xddf252ad1be2c89b69c2b068fc378daa952ba7f163c4a11628f55a4df523b3ef\n        /* \"contracts/BlueToken.sol\":1194:1200  _value */\n      dup5\n        /* \"contracts/BlueToken.sol\":1168:1201  Transfer(msg.sender, _to, _value) */\n      mload(0x40)\n      tag_77\n      swap2\n      swap1\n      tag_31\n      jump\t// in\n    tag_77:\n      mload(0x40)\n      dup1\n      swap2\n      sub\n      swap1\n      log3\n        /* \"contracts/BlueToken.sol\":1216:1220  true */\n      0x01\n        /* \"contracts/BlueToken.sol\":1209:1220  return true */\n      swap1\n      pop\n        /* \"contracts/BlueToken.sol\":883:1226  function transferToken(address _to, uint256 _value) public returns (bool) {... */\n      swap3\n      swap2\n      pop\n      pop\n      jump\t// out\n        /* \"contracts/BlueToken.sol\":190:216  uint256 public totalSupply */\n    tag_29:\n      sload(0x01)\n      dup2\n      jump\t// out\n        /* \"contracts/BlueToken.sol\":1429:2021  function transferFrom(address _from, address _to, uint256 _value) public returns (bool) {... */\n    tag_35:\n        /* \"contracts/BlueToken.sol\":1511:1515  bool */\n      0x00\n        /* \"contracts/BlueToken.sol\":1552:1553  0 */\n      dup1\n        /* \"contracts/BlueToken.sol\":1535:1554  _from != address(0) */\n      0xffffffffffffffffffffffffffffffffffffffff\n      and\n        /* \"contracts/BlueToken.sol\":1535:1540  _from */\n      dup5\n        /* \"contracts/BlueToken.sol\":1535:1554  _from != address(0) */\n      0xffffffffffffffffffffffffffffffffffffffff\n      and\n      eq\n      iszero\n        /* \"contracts/BlueToken.sol\":1527:1596  require(_from != address(0), \"ERC20: transfer from the zero address\") */\n      tag_79\n      jumpi\n      mload(0x40)\n      0x08c379a000000000000000000000000000000000000000000000000000000000\n      dup2\n      mstore\n      0x04\n      add\n      tag_80\n      swap1\n      tag_81\n      jump\t// in\n    tag_80:\n      mload(0x40)\n      dup1\n      swap2\n      sub\n      swap1\n      revert\n    tag_79:\n        /* \"contracts/BlueToken.sol\":1629:1630  0 */\n      0x00\n        /* \"contracts/BlueToken.sol\":1614:1631  _to != address(0) */\n      0xffffffffffffffffffffffffffffffffffffffff\n      and\n        /* \"contracts/BlueToken.sol\":1614:1617  _to */\n      dup4\n        /* \"contracts/BlueToken.sol\":1614:1631  _to != address(0) */\n      0xffffffffffffffffffffffffffffffffffffffff\n      and\n      eq\n      iszero\n        /* \"contracts/BlueToken.sol\":1606:1671  require(_to != address(0), \"ERC20: transfer to the zero address\") */\n      tag_82\n      jumpi\n      mload(0x40)\n      0x08c379a000000000000000000000000000000000000000000000000000000000\n      dup2\n      mstore\n      0x04\n      add\n      tag_83\n      swap1\n      tag_84\n      jump\t// in\n    tag_83:\n      mload(0x40)\n      dup1\n      swap2\n      sub\n      swap1\n      revert\n    tag_82:\n        /* \"contracts/BlueToken.sol\":1708:1714  _value */\n      dup2\n        /* \"contracts/BlueToken.sol\":1689:1697  balances */\n      0x02\n        /* \"contracts/BlueToken.sol\":1689:1704  balances[_from] */\n      0x00\n        /* \"contracts/BlueToken.sol\":1698:1703  _from */\n      dup7\n        /* \"contracts/BlueToken.sol\":1689:1704  balances[_from] */\n      0xffffffffffffffffffffffffffffffffffffffff\n      and\n      0xffffffffffffffffffffffffffffffffffffffff\n      and\n      dup2\n      mstore\n      0x20\n      add\n      swap1\n      dup2\n      mstore\n      0x20\n      add\n      0x00\n      keccak256\n      sload\n        /* \"contracts/BlueToken.sol\":1689:1714  balances[_from] >= _value */\n      lt\n      iszero\n        /* \"contracts/BlueToken.sol\":1681:1746  require(balances[_from] >= _value, \"ERC20: insufficient balance\") */\n      tag_85\n      jumpi\n      mload(0x40)\n      0x08c379a000000000000000000000000000000000000000000000000000000000\n      dup2\n      mstore\n      0x04\n      add\n      tag_86\n      swap1\n      tag_87\n      jump\t// in\n    tag_86:\n      mload(0x40)\n      dup1\n      swap2\n      sub\n      swap1\n      revert\n    tag_85:\n        /* \"contracts/BlueToken.sol\":1797:1803  _value */\n      dup2\n        /* \"contracts/BlueToken.sol\":1764:1774  allowances */\n      0x03\n        /* \"contracts/BlueToken.sol\":1764:1781  allowances[_from] */\n      0x00\n        /* \"contracts/BlueToken.sol\":1775:1780  _from */\n      dup7\n        /* \"contracts/BlueToken.sol\":1764:1781  allowances[_from] */\n      0xffffffffffffffffffffffffffffffffffffffff\n      and\n      0xffffffffffffffffffffffffffffffffffffffff\n      and\n      dup2\n      mstore\n      0x20\n      add\n      swap1\n      dup2\n      mstore\n      0x20\n      add\n      0x00\n      keccak256\n        /* \"contracts/BlueToken.sol\":1764:1793  allowances[_from][msg.sender] */\n      0x00\n        /* \"contracts/BlueToken.sol\":1782:1792  msg.sender */\n      caller\n        /* \"contracts/BlueToken.sol\":1764:1793  allowances[_from][msg.sender] */\n      0xffffffffffffffffffffffffffffffffffffffff\n      and\n      0xffffffffffffffffffffffffffffffffffffffff\n      and\n      dup2\n      mstore\n      0x20\n      add\n      swap1\n      dup2\n      mstore\n      0x20\n      add\n      0x00\n      keccak256\n      sload\n        /* \"contracts/BlueToken.sol\":1764:1803  allowances[_from][msg.sender] >= _value */\n      lt\n      iszero\n        /* \"contracts/BlueToken.sol\":1756:1833  require(allowances[_from][msg.sender] >= _value, \"ERC20: allowance exceeded\") */\n      tag_88\n      jumpi\n      mload(0x40)\n      0x08c379a000000000000000000000000000000000000000000000000000000000\n      dup2\n      mstore\n      0x04\n      add\n      tag_89\n      swap1\n      tag_90\n      jump\t// in\n    tag_89:\n      mload(0x40)\n      dup1\n      swap2\n      sub\n      swap1\n      revert\n    tag_88:\n        /* \"contracts/BlueToken.sol\":1863:1869  _value */\n      dup2\n        /* \"contracts/BlueToken.sol\":1844:1852  balances */\n      0x02\n        /* \"contracts/BlueToken.sol\":1844:1859  balances[_from] */\n      0x00\n        /* \"contracts/BlueToken.sol\":1853:1858  _from */\n      dup7\n        /* \"contracts/BlueToken.sol\":1844:1859  balances[_from] */\n      0xffffffffffffffffffffffffffffffffffffffff\n      and\n      0xffffffffffffffffffffffffffffffffffffffff\n      and\n      dup2\n      mstore\n      0x20\n      add\n      swap1\n      dup2\n      mstore\n      0x20\n      add\n      0x00\n      keccak256\n      0x00\n        /* \"contracts/BlueToken.sol\":1844:1869  balances[_from] -= _value */\n      dup3\n      dup3\n      sload\n      tag_91\n      swap2\n      swap1\n      tag_74\n      jump\t// in\n    tag_91:\n      swap3\n      pop\n      pop\n      dup2\n      swap1\n      sstore\n      pop\n        /* \"contracts/BlueToken.sol\":1896:1902  _value */\n      dup2\n        /* \"contracts/BlueToken.sol\":1879:1887  balances */\n      0x02\n        /* \"contracts/BlueToken.sol\":1879:1892  balances[_to] */\n      0x00\n        /* \"contracts/BlueToken.sol\":1888:1891  _to */\n      dup6\n        /* \"contracts/BlueToken.sol\":1879:1892  balances[_to] */\n      0xffffffffffffffffffffffffffffffffffffffff\n      and\n      0xffffffffffffffffffffffffffffffffffffffff\n      and\n      dup2\n      mstore\n      0x20\n      add\n      swap1\n      dup2\n      mstore\n      0x20\n      add\n      0x00\n      keccak256\n      0x00\n        /* \"contracts/BlueToken.sol\":1879:1902  balances[_to] += _value */\n      dup3\n      dup3\n      sload\n      tag_92\n      swap2\n      swap1\n      tag_76\n      jump\t// in\n    tag_92:\n      swap3\n      pop\n      pop\n      dup2\n      swap1\n      sstore\n      pop\n        /* \"contracts/BlueToken.sol\":1945:1951  _value */\n      dup2\n        /* \"contracts/BlueToken.sol\":1912:1922  allowances */\n      0x03\n        /* \"contracts/BlueToken.sol\":1912:1929  allowances[_from] */\n      0x00\n        /* \"contracts/BlueToken.sol\":1923:1928  _from */\n      dup7\n        /* \"contracts/BlueToken.sol\":1912:1929  allowances[_from] */\n      0xffffffffffffffffffffffffffffffffffffffff\n      and\n      0xffffffffffffffffffffffffffffffffffffffff\n      and\n      dup2\n      mstore\n      0x20\n      add\n      swap1\n      dup2\n      mstore\n      0x20\n      add\n      0x00\n      keccak256\n        /* \"contracts/BlueToken.sol\":1912:1941  allowances[_from][msg.sender] */\n      0x00\n        /* \"contracts/BlueToken.sol\":1930:1940  msg.sender */\n      caller\n        /* \"contracts/BlueToken.sol\":1912:1941  allowances[_from][msg.sender] */\n      0xffffffffffffffffffffffffffffffffffffffff\n      and\n      0xffffffffffffffffffffffffffffffffffffffff\n      and\n      dup2\n      mstore\n      0x20\n      add\n      swap1\n      dup2\n      mstore\n      0x20\n      add\n      0x00\n      keccak256\n      0x00\n        /* \"contracts/BlueToken.sol\":1912:1951  allowances[_from][msg.sender] -= _value */\n      dup3\n      dup3\n      sload\n      tag_93\n      swap2\n      swap1\n      tag_74\n      jump\t// in\n    tag_93:\n      swap3\n      pop\n      pop\n      dup2\n      swap1\n      sstore\n      pop\n        /* \"contracts/BlueToken.sol\":1982:1985  _to */\n      dup3\n        /* \"contracts/BlueToken.sol\":1966:1994  Transfer(_from, _to, _value) */\n      0xffffffffffffffffffffffffffffffffffffffff\n      and\n        /* \"contracts/BlueToken.sol\":1975:1980  _from */\n      dup5\n        /* \"contracts/BlueToken.sol\":1966:1994  Transfer(_from, _to, _value) */\n      0xffffffffffffffffffffffffffffffffffffffff\n      and\n      0xddf252ad1be2c89b69c2b068fc378daa952ba7f163c4a11628f55a4df523b3ef\n        /* \"contracts/BlueToken.sol\":1987:1993  _value */\n      dup5\n        /* \"contracts/BlueToken.sol\":1966:1994  Transfer(_from, _to, _value) */\n      mload(0x40)\n      tag_94\n      swap2\n      swap1\n      tag_31\n      jump\t// in\n    tag_94:\n      mload(0x40)\n      dup1\n      swap2\n      sub\n      swap1\n      log3\n        /* \"contracts/BlueToken.sol\":2011:2015  true */\n      0x01\n        /* \"contracts/BlueToken.sol\":2004:2015  return true */\n      swap1\n      pop\n        /* \"contracts/BlueToken.sol\":1429:2021  function transferFrom(address _from, address _to, uint256 _value) public returns (bool) {... */\n      swap4\n      swap3\n      pop\n      pop\n      pop\n      jump\t// out\n        /* \"contracts/BlueToken.sol\":221:265  mapping (address => uint256) public balances */\n    tag_40:\n      mstore(0x20, 0x02)\n      dup1\n      0x00\n      mstore\n      keccak256(0x00, 0x40)\n      0x00\n      swap2\n      pop\n      swap1\n      pop\n      sload\n      dup2\n      jump\t// out\n        /* \"contracts/BlueToken.sol\":269:336  mapping (address => mapping (address => uint256)) public allowances */\n    tag_45:\n      mstore(0x20, 0x03)\n      dup2\n      0x00\n      mstore\n      mstore(0x20, keccak256(0x00, 0x40))\n      dup1\n      0x00\n      mstore\n      keccak256(0x00, 0x40)\n      0x00\n      swap2\n      pop\n      swap2\n      pop\n      pop\n      sload\n      dup2\n      jump\t// out\n        /* \"contracts/BlueToken.sol\":679:767  function totalOfSupply() public view returns (uint256) {... */\n    tag_48:\n        /* \"contracts/BlueToken.sol\":725:732  uint256 */\n      0x00\n        /* \"contracts/BlueToken.sol\":750:761  totalSupply */\n      sload(0x01)\n        /* \"contracts/BlueToken.sol\":743:761  return totalSupply */\n      swap1\n      pop\n        /* \"contracts/BlueToken.sol\":679:767  function totalOfSupply() public view returns (uint256) {... */\n      swap1\n      jump\t// out\n        /* \"contracts/BlueToken.sol\":772:878  function balanceOfToken(address _owner) public view returns (uint256) {... */\n    tag_52:\n        /* \"contracts/BlueToken.sol\":833:840  uint256 */\n      0x00\n        /* \"contracts/BlueToken.sol\":856:864  balances */\n      0x02\n        /* \"contracts/BlueToken.sol\":856:872  balances[_owner] */\n      0x00\n        /* \"contracts/BlueToken.sol\":865:871  _owner */\n      dup4\n        /* \"contracts/BlueToken.sol\":856:872  balances[_owner] */\n      0xffffffffffffffffffffffffffffffffffffffff\n      and\n      0xffffffffffffffffffffffffffffffffffffffff\n      and\n      dup2\n      mstore\n      0x20\n      add\n      swap1\n      dup2\n      mstore\n      0x20\n      add\n      0x00\n      keccak256\n      sload\n        /* \"contracts/BlueToken.sol\":849:872  return balances[_owner] */\n      swap1\n      pop\n        /* \"contracts/BlueToken.sol\":772:878  function balanceOfToken(address _owner) public view returns (uint256) {... */\n      swap2\n      swap1\n      pop\n      jump\t// out\n        /* \"contracts/BlueToken.sol\":2026:2157  function allowance(address _owner, address _spender) public view returns (uint256){ ... */\n    tag_56:\n        /* \"contracts/BlueToken.sol\":2100:2107  uint256 */\n      0x00\n        /* \"contracts/BlueToken.sol\":2123:2133  allowances */\n      0x03\n        /* \"contracts/BlueToken.sol\":2123:2141  allowances[_owner] */\n      0x00\n        /* \"contracts/BlueToken.sol\":2134:2140  _owner */\n      dup5\n        /* \"contracts/BlueToken.sol\":2123:2141  allowances[_owner] */\n      0xffffffffffffffffffffffffffffffffffffffff\n      and\n      0xffffffffffffffffffffffffffffffffffffffff\n      and\n      dup2\n      mstore\n      0x20\n      add\n      swap1\n      dup2\n      mstore\n      0x20\n      add\n      0x00\n      keccak256\n        /* \"contracts/BlueToken.sol\":2123:2151  allowances[_owner][_spender] */\n      0x00\n        /* \"contracts/BlueToken.sol\":2142:2150  _spender */\n      dup4\n        /* \"contracts/BlueToken.sol\":2123:2151  allowances[_owner][_spender] */\n      0xffffffffffffffffffffffffffffffffffffffff\n      and\n      0xffffffffffffffffffffffffffffffffffffffff\n      and\n      dup2\n      mstore\n      0x20\n      add\n      swap1\n      dup2\n      mstore\n      0x20\n      add\n      0x00\n      keccak256\n      sload\n        /* \"contracts/BlueToken.sol\":2116:2151  return allowances[_owner][_spender] */\n      swap1\n      pop\n        /* \"contracts/BlueToken.sol\":2026:2157  function allowance(address _owner, address _spender) public view returns (uint256){ ... */\n      swap3\n      swap2\n      pop\n      pop\n      jump\t// out\n        /* \"#utility.yul\":7:146   */\n    tag_99:\n        /* \"#utility.yul\":53:58   */\n      0x00\n        /* \"#utility.yul\":91:97   */\n      dup2\n        /* \"#utility.yul\":78:98   */\n      calldataload\n        /* \"#utility.yul\":69:98   */\n      swap1\n      pop\n        /* \"#utility.yul\":107:140   */\n      tag_101\n        /* \"#utility.yul\":134:139   */\n      dup2\n        /* \"#utility.yul\":107:140   */\n      tag_102\n      jump\t// in\n    tag_101:\n        /* \"#utility.yul\":7:146   */\n      swap3\n      swap2\n      pop\n      pop\n      jump\t// out\n        /* \"#utility.yul\":152:291   */\n    tag_103:\n        /* \"#utility.yul\":198:203   */\n      0x00\n        /* \"#utility.yul\":236:242   */\n      dup2\n        /* \"#utility.yul\":223:243   */\n      calldataload\n        /* \"#utility.yul\":214:243   */\n      swap1\n      pop\n        /* \"#utility.yul\":252:285   */\n      tag_105\n        /* \"#utility.yul\":279:284   */\n      dup2\n        /* \"#utility.yul\":252:285   */\n      tag_106\n      jump\t// in\n    tag_105:\n        /* \"#utility.yul\":152:291   */\n      swap3\n      swap2\n      pop\n      pop\n      jump\t// out\n        /* \"#utility.yul\":297:626   */\n    tag_39:\n        /* \"#utility.yul\":356:362   */\n      0x00\n        /* \"#utility.yul\":405:407   */\n      0x20\n        /* \"#utility.yul\":393:402   */\n      dup3\n        /* \"#utility.yul\":384:391   */\n      dup5\n        /* \"#utility.yul\":380:403   */\n      sub\n        /* \"#utility.yul\":376:408   */\n      slt\n        /* \"#utility.yul\":373:492   */\n      iszero\n      tag_108\n      jumpi\n        /* \"#utility.yul\":411:490   */\n      tag_109\n      tag_110\n      jump\t// in\n    tag_109:\n        /* \"#utility.yul\":373:492   */\n    tag_108:\n        /* \"#utility.yul\":531:532   */\n      0x00\n        /* \"#utility.yul\":556:609   */\n      tag_111\n        /* \"#utility.yul\":601:608   */\n      dup5\n        /* \"#utility.yul\":592:598   */\n      dup3\n        /* \"#utility.yul\":581:590   */\n      dup6\n        /* \"#utility.yul\":577:599   */\n      add\n        /* \"#utility.yul\":556:609   */\n      tag_99\n      jump\t// in\n    tag_111:\n        /* \"#utility.yul\":546:609   */\n      swap2\n      pop\n        /* \"#utility.yul\":502:619   */\n      pop\n        /* \"#utility.yul\":297:626   */\n      swap3\n      swap2\n      pop\n      pop\n      jump\t// out\n        /* \"#utility.yul\":632:1106   */\n    tag_44:\n        /* \"#utility.yul\":700:706   */\n      0x00\n        /* \"#utility.yul\":708:714   */\n      dup1\n        /* \"#utility.yul\":757:759   */\n      0x40\n        /* \"#utility.yul\":745:754   */\n      dup4\n        /* \"#utility.yul\":736:743   */\n      dup6\n        /* \"#utility.yul\":732:755   */\n      sub\n        /* \"#utility.yul\":728:760   */\n      slt\n        /* \"#utility.yul\":725:844   */\n      iszero\n      tag_113\n      jumpi\n        /* \"#utility.yul\":763:842   */\n      tag_114\n      tag_110\n      jump\t// in\n    tag_114:\n        /* \"#utility.yul\":725:844   */\n    tag_113:\n        /* \"#utility.yul\":883:884   */\n      0x00\n        /* \"#utility.yul\":908:961   */\n      tag_115\n        /* \"#utility.yul\":953:960   */\n      dup6\n        /* \"#utility.yul\":944:950   */\n      dup3\n        /* \"#utility.yul\":933:942   */\n      dup7\n        /* \"#utility.yul\":929:951   */\n      add\n        /* \"#utility.yul\":908:961   */\n      tag_99\n      jump\t// in\n    tag_115:\n        /* \"#utility.yul\":898:961   */\n      swap3\n      pop\n        /* \"#utility.yul\":854:971   */\n      pop\n        /* \"#utility.yul\":1010:1012   */\n      0x20\n        /* \"#utility.yul\":1036:1089   */\n      tag_116\n        /* \"#utility.yul\":1081:1088   */\n      dup6\n        /* \"#utility.yul\":1072:1078   */\n      dup3\n        /* \"#utility.yul\":1061:1070   */\n      dup7\n        /* \"#utility.yul\":1057:1079   */\n      add\n        /* \"#utility.yul\":1036:1089   */\n      tag_99\n      jump\t// in\n    tag_116:\n        /* \"#utility.yul\":1026:1089   */\n      swap2\n      pop\n        /* \"#utility.yul\":981:1099   */\n      pop\n        /* \"#utility.yul\":632:1106   */\n      swap3\n      pop\n      swap3\n      swap1\n      pop\n      jump\t// out\n        /* \"#utility.yul\":1112:1731   */\n    tag_34:\n        /* \"#utility.yul\":1189:1195   */\n      0x00\n        /* \"#utility.yul\":1197:1203   */\n      dup1\n        /* \"#utility.yul\":1205:1211   */\n      0x00\n        /* \"#utility.yul\":1254:1256   */\n      0x60\n        /* \"#utility.yul\":1242:1251   */\n      dup5\n        /* \"#utility.yul\":1233:1240   */\n      dup7\n        /* \"#utility.yul\":1229:1252   */\n      sub\n        /* \"#utility.yul\":1225:1257   */\n      slt\n        /* \"#utility.yul\":1222:1341   */\n      iszero\n      tag_118\n      jumpi\n        /* \"#utility.yul\":1260:1339   */\n      tag_119\n      tag_110\n      jump\t// in\n    tag_119:\n        /* \"#utility.yul\":1222:1341   */\n    tag_118:\n        /* \"#utility.yul\":1380:1381   */\n      0x00\n        /* \"#utility.yul\":1405:1458   */\n      tag_120\n        /* \"#utility.yul\":1450:1457   */\n      dup7\n        /* \"#utility.yul\":1441:1447   */\n      dup3\n        /* \"#utility.yul\":1430:1439   */\n      dup8\n        /* \"#utility.yul\":1426:1448   */\n      add\n        /* \"#utility.yul\":1405:1458   */\n      tag_99\n      jump\t// in\n    tag_120:\n        /* \"#utility.yul\":1395:1458   */\n      swap4\n      pop\n        /* \"#utility.yul\":1351:1468   */\n      pop\n        /* \"#utility.yul\":1507:1509   */\n      0x20\n        /* \"#utility.yul\":1533:1586   */\n      tag_121\n        /* \"#utility.yul\":1578:1585   */\n      dup7\n        /* \"#utility.yul\":1569:1575   */\n      dup3\n        /* \"#utility.yul\":1558:1567   */\n      dup8\n        /* \"#utility.yul\":1554:1576   */\n      add\n        /* \"#utility.yul\":1533:1586   */\n      tag_99\n      jump\t// in\n    tag_121:\n        /* \"#utility.yul\":1523:1586   */\n      swap3\n      pop\n        /* \"#utility.yul\":1478:1596   */\n      pop\n        /* \"#utility.yul\":1635:1637   */\n      0x40\n        /* \"#utility.yul\":1661:1714   */\n      tag_122\n        /* \"#utility.yul\":1706:1713   */\n      dup7\n        /* \"#utility.yul\":1697:1703   */\n      dup3\n        /* \"#utility.yul\":1686:1695   */\n      dup8\n        /* \"#utility.yul\":1682:1704   */\n      add\n        /* \"#utility.yul\":1661:1714   */\n      tag_103\n      jump\t// in\n    tag_122:\n        /* \"#utility.yul\":1651:1714   */\n      swap2\n      pop\n        /* \"#utility.yul\":1606:1724   */\n      pop\n        /* \"#utility.yul\":1112:1731   */\n      swap3\n      pop\n      swap3\n      pop\n      swap3\n      jump\t// out\n        /* \"#utility.yul\":1737:2211   */\n    tag_20:\n        /* \"#utility.yul\":1805:1811   */\n      0x00\n        /* \"#utility.yul\":1813:1819   */\n      dup1\n        /* \"#utility.yul\":1862:1864   */\n      0x40\n        /* \"#utility.yul\":1850:1859   */\n      dup4\n        /* \"#utility.yul\":1841:1848   */\n      dup6\n        /* \"#utility.yul\":1837:1860   */\n      sub\n        /* \"#utility.yul\":1833:1865   */\n      slt\n        /* \"#utility.yul\":1830:1949   */\n      iszero\n      tag_124\n      jumpi\n        /* \"#utility.yul\":1868:1947   */\n      tag_125\n      tag_110\n      jump\t// in\n    tag_125:\n        /* \"#utility.yul\":1830:1949   */\n    tag_124:\n        /* \"#utility.yul\":1988:1989   */\n      0x00\n        /* \"#utility.yul\":2013:2066   */\n      tag_126\n        /* \"#utility.yul\":2058:2065   */\n      dup6\n        /* \"#utility.yul\":2049:2055   */\n      dup3\n        /* \"#utility.yul\":2038:2047   */\n      dup7\n        /* \"#utility.yul\":2034:2056   */\n      add\n        /* \"#utility.yul\":2013:2066   */\n      tag_99\n      jump\t// in\n    tag_126:\n        /* \"#utility.yul\":2003:2066   */\n      swap3\n      pop\n        /* \"#utility.yul\":1959:2076   */\n      pop\n        /* \"#utility.yul\":2115:2117   */\n      0x20\n        /* \"#utility.yul\":2141:2194   */\n      tag_127\n        /* \"#utility.yul\":2186:2193   */\n      dup6\n        /* \"#utility.yul\":2177:2183   */\n      dup3\n        /* \"#utility.yul\":2166:2175   */\n      dup7\n        /* \"#utility.yul\":2162:2184   */\n      add\n        /* \"#utility.yul\":2141:2194   */\n      tag_103\n      jump\t// in\n    tag_127:\n        /* \"#utility.yul\":2131:2194   */\n      swap2\n      pop\n        /* \"#utility.yul\":2086:2204   */\n      pop\n        /* \"#utility.yul\":1737:2211   */\n      swap3\n      pop\n      swap3\n      swap1\n      pop\n      jump\t// out\n        /* \"#utility.yul\":2217:2326   */\n    tag_128:\n        /* \"#utility.yul\":2298:2319   */\n      tag_130\n        /* \"#utility.yul\":2313:2318   */\n      dup2\n        /* \"#utility.yul\":2298:2319   */\n      tag_131\n      jump\t// in\n    tag_130:\n        /* \"#utility.yul\":2293:2296   */\n      dup3\n        /* \"#utility.yul\":2286:2320   */\n      mstore\n        /* \"#utility.yul\":2217:2326   */\n      pop\n      pop\n      jump\t// out\n        /* \"#utility.yul\":2332:2696   */\n    tag_132:\n        /* \"#utility.yul\":2420:2423   */\n      0x00\n        /* \"#utility.yul\":2448:2487   */\n      tag_134\n        /* \"#utility.yul\":2481:2486   */\n      dup3\n        /* \"#utility.yul\":2448:2487   */\n      tag_135\n      jump\t// in\n    tag_134:\n        /* \"#utility.yul\":2503:2574   */\n      tag_136\n        /* \"#utility.yul\":2567:2573   */\n      dup2\n        /* \"#utility.yul\":2562:2565   */\n      dup6\n        /* \"#utility.yul\":2503:2574   */\n      tag_137\n      jump\t// in\n    tag_136:\n        /* \"#utility.yul\":2496:2574   */\n      swap4\n      pop\n        /* \"#utility.yul\":2583:2635   */\n      tag_138\n        /* \"#utility.yul\":2628:2634   */\n      dup2\n        /* \"#utility.yul\":2623:2626   */\n      dup6\n        /* \"#utility.yul\":2616:2620   */\n      0x20\n        /* \"#utility.yul\":2609:2614   */\n      dup7\n        /* \"#utility.yul\":2605:2621   */\n      add\n        /* \"#utility.yul\":2583:2635   */\n      tag_139\n      jump\t// in\n    tag_138:\n        /* \"#utility.yul\":2660:2689   */\n      tag_140\n        /* \"#utility.yul\":2682:2688   */\n      dup2\n        /* \"#utility.yul\":2660:2689   */\n      tag_141\n      jump\t// in\n    tag_140:\n        /* \"#utility.yul\":2655:2658   */\n      dup5\n        /* \"#utility.yul\":2651:2690   */\n      add\n        /* \"#utility.yul\":2644:2690   */\n      swap2\n      pop\n        /* \"#utility.yul\":2424:2696   */\n      pop\n        /* \"#utility.yul\":2332:2696   */\n      swap3\n      swap2\n      pop\n      pop\n      jump\t// out\n        /* \"#utility.yul\":2702:3068   */\n    tag_142:\n        /* \"#utility.yul\":2844:2847   */\n      0x00\n        /* \"#utility.yul\":2865:2932   */\n      tag_144\n        /* \"#utility.yul\":2929:2931   */\n      0x23\n        /* \"#utility.yul\":2924:2927   */\n      dup4\n        /* \"#utility.yul\":2865:2932   */\n      tag_137\n      jump\t// in\n    tag_144:\n        /* \"#utility.yul\":2858:2932   */\n      swap2\n      pop\n        /* \"#utility.yul\":2941:3034   */\n      tag_145\n        /* \"#utility.yul\":3030:3033   */\n      dup3\n        /* \"#utility.yul\":2941:3034   */\n      tag_146\n      jump\t// in\n    tag_145:\n        /* \"#utility.yul\":3059:3061   */\n      0x40\n        /* \"#utility.yul\":3054:3057   */\n      dup3\n        /* \"#utility.yul\":3050:3062   */\n      add\n        /* \"#utility.yul\":3043:3062   */\n      swap1\n      pop\n        /* \"#utility.yul\":2702:3068   */\n      swap2\n      swap1\n      pop\n      jump\t// out\n        /* \"#utility.yul\":3074:3440   */\n    tag_147:\n        /* \"#utility.yul\":3216:3219   */\n      0x00\n        /* \"#utility.yul\":3237:3304   */\n      tag_149\n        /* \"#utility.yul\":3301:3303   */\n      0x19\n        /* \"#utility.yul\":3296:3299   */\n      dup4\n        /* \"#utility.yul\":3237:3304   */\n      tag_137\n      jump\t// in\n    tag_149:\n        /* \"#utility.yul\":3230:3304   */\n      swap2\n      pop\n        /* \"#utility.yul\":3313:3406   */\n      tag_150\n        /* \"#utility.yul\":3402:3405   */\n      dup3\n        /* \"#utility.yul\":3313:3406   */\n      tag_151\n      jump\t// in\n    tag_150:\n        /* \"#utility.yul\":3431:3433   */\n      0x20\n        /* \"#utility.yul\":3426:3429   */\n      dup3\n        /* \"#utility.yul\":3422:3434   */\n      add\n        /* \"#utility.yul\":3415:3434   */\n      swap1\n      pop\n        /* \"#utility.yul\":3074:3440   */\n      swap2\n      swap1\n      pop\n      jump\t// out\n        /* \"#utility.yul\":3446:3812   */\n    tag_152:\n        /* \"#utility.yul\":3588:3591   */\n      0x00\n        /* \"#utility.yul\":3609:3676   */\n      tag_154\n        /* \"#utility.yul\":3673:3675   */\n      0x12\n        /* \"#utility.yul\":3668:3671   */\n      dup4\n        /* \"#utility.yul\":3609:3676   */\n      tag_137\n      jump\t// in\n    tag_154:\n        /* \"#utility.yul\":3602:3676   */\n      swap2\n      pop\n        /* \"#utility.yul\":3685:3778   */\n      tag_155\n        /* \"#utility.yul\":3774:3777   */\n      dup3\n        /* \"#utility.yul\":3685:3778   */\n      tag_156\n      jump\t// in\n    tag_155:\n        /* \"#utility.yul\":3803:3805   */\n      0x20\n        /* \"#utility.yul\":3798:3801   */\n      dup3\n        /* \"#utility.yul\":3794:3806   */\n      add\n        /* \"#utility.yul\":3787:3806   */\n      swap1\n      pop\n        /* \"#utility.yul\":3446:3812   */\n      swap2\n      swap1\n      pop\n      jump\t// out\n        /* \"#utility.yul\":3818:4184   */\n    tag_157:\n        /* \"#utility.yul\":3960:3963   */\n      0x00\n        /* \"#utility.yul\":3981:4048   */\n      tag_159\n        /* \"#utility.yul\":4045:4047   */\n      0x1b\n        /* \"#utility.yul\":4040:4043   */\n      dup4\n        /* \"#utility.yul\":3981:4048   */\n      tag_137\n      jump\t// in\n    tag_159:\n        /* \"#utility.yul\":3974:4048   */\n      swap2\n      pop\n        /* \"#utility.yul\":4057:4150   */\n      tag_160\n        /* \"#utility.yul\":4146:4149   */\n      dup3\n        /* \"#utility.yul\":4057:4150   */\n      tag_161\n      jump\t// in\n    tag_160:\n        /* \"#utility.yul\":4175:4177   */\n      0x20\n        /* \"#utility.yul\":4170:4173   */\n      dup3\n        /* \"#utility.yul\":4166:4178   */\n      add\n        /* \"#utility.yul\":4159:4178   */\n      swap1\n      pop\n        /* \"#utility.yul\":3818:4184   */\n      swap2\n      swap1\n      pop\n      jump\t// out\n        /* \"#utility.yul\":4190:4556   */\n    tag_162:\n        /* \"#utility.yul\":4332:4335   */\n      0x00\n        /* \"#utility.yul\":4353:4420   */\n      tag_164\n        /* \"#utility.yul\":4417:4419   */\n      0x1b\n        /* \"#utility.yul\":4412:4415   */\n      dup4\n        /* \"#utility.yul\":4353:4420   */\n      tag_137\n      jump\t// in\n    tag_164:\n        /* \"#utility.yul\":4346:4420   */\n      swap2\n      pop\n        /* \"#utility.yul\":4429:4522   */\n      tag_165\n        /* \"#utility.yul\":4518:4521   */\n      dup3\n        /* \"#utility.yul\":4429:4522   */\n      tag_166\n      jump\t// in\n    tag_165:\n        /* \"#utility.yul\":4547:4549   */\n      0x20\n        /* \"#utility.yul\":4542:4545   */\n      dup3\n        /* \"#utility.yul\":4538:4550   */\n      add\n        /* \"#utility.yul\":4531:4550   */\n      swap1\n      pop\n        /* \"#utility.yul\":4190:4556   */\n      swap2\n      swap1\n      pop\n      jump\t// out\n        /* \"#utility.yul\":4562:4928   */\n    tag_167:\n        /* \"#utility.yul\":4704:4707   */\n      0x00\n        /* \"#utility.yul\":4725:4792   */\n      tag_169\n        /* \"#utility.yul\":4789:4791   */\n      0x25\n        /* \"#utility.yul\":4784:4787   */\n      dup4\n        /* \"#utility.yul\":4725:4792   */\n      tag_137\n      jump\t// in\n    tag_169:\n        /* \"#utility.yul\":4718:4792   */\n      swap2\n      pop\n        /* \"#utility.yul\":4801:4894   */\n      tag_170\n        /* \"#utility.yul\":4890:4893   */\n      dup3\n        /* \"#utility.yul\":4801:4894   */\n      tag_171\n      jump\t// in\n    tag_170:\n        /* \"#utility.yul\":4919:4921   */\n      0x40\n        /* \"#utility.yul\":4914:4917   */\n      dup3\n        /* \"#utility.yul\":4910:4922   */\n      add\n        /* \"#utility.yul\":4903:4922   */\n      swap1\n      pop\n        /* \"#utility.yul\":4562:4928   */\n      swap2\n      swap1\n      pop\n      jump\t// out\n        /* \"#utility.yul\":4934:5052   */\n    tag_172:\n        /* \"#utility.yul\":5021:5045   */\n      tag_174\n        /* \"#utility.yul\":5039:5044   */\n      dup2\n        /* \"#utility.yul\":5021:5045   */\n      tag_175\n      jump\t// in\n    tag_174:\n        /* \"#utility.yul\":5016:5019   */\n      dup3\n        /* \"#utility.yul\":5009:5046   */\n      mstore\n        /* \"#utility.yul\":4934:5052   */\n      pop\n      pop\n      jump\t// out\n        /* \"#utility.yul\":5058:5268   */\n    tag_23:\n        /* \"#utility.yul\":5145:5149   */\n      0x00\n        /* \"#utility.yul\":5183:5185   */\n      0x20\n        /* \"#utility.yul\":5172:5181   */\n      dup3\n        /* \"#utility.yul\":5168:5186   */\n      add\n        /* \"#utility.yul\":5160:5186   */\n      swap1\n      pop\n        /* \"#utility.yul\":5196:5261   */\n      tag_177\n        /* \"#utility.yul\":5258:5259   */\n      0x00\n        /* \"#utility.yul\":5247:5256   */\n      dup4\n        /* \"#utility.yul\":5243:5260   */\n      add\n        /* \"#utility.yul\":5234:5240   */\n      dup5\n        /* \"#utility.yul\":5196:5261   */\n      tag_128\n      jump\t// in\n    tag_177:\n        /* \"#utility.yul\":5058:5268   */\n      swap3\n      swap2\n      pop\n      pop\n      jump\t// out\n        /* \"#utility.yul\":5274:5587   */\n    tag_17:\n        /* \"#utility.yul\":5387:5391   */\n      0x00\n        /* \"#utility.yul\":5425:5427   */\n      0x20\n        /* \"#utility.yul\":5414:5423   */\n      dup3\n        /* \"#utility.yul\":5410:5428   */\n      add\n        /* \"#utility.yul\":5402:5428   */\n      swap1\n      pop\n        /* \"#utility.yul\":5474:5483   */\n      dup2\n        /* \"#utility.yul\":5468:5472   */\n      dup2\n        /* \"#utility.yul\":5464:5484   */\n      sub\n        /* \"#utility.yul\":5460:5461   */\n      0x00\n        /* \"#utility.yul\":5449:5458   */\n      dup4\n        /* \"#utility.yul\":5445:5462   */\n      add\n        /* \"#utility.yul\":5438:5485   */\n      mstore\n        /* \"#utility.yul\":5502:5580   */\n      tag_179\n        /* \"#utility.yul\":5575:5579   */\n      dup2\n        /* \"#utility.yul\":5566:5572   */\n      dup5\n        /* \"#utility.yul\":5502:5580   */\n      tag_132\n      jump\t// in\n    tag_179:\n        /* \"#utility.yul\":5494:5580   */\n      swap1\n      pop\n        /* \"#utility.yul\":5274:5587   */\n      swap3\n      swap2\n      pop\n      pop\n      jump\t// out\n        /* \"#utility.yul\":5593:6012   */\n    tag_84:\n        /* \"#utility.yul\":5759:5763   */\n      0x00\n        /* \"#utility.yul\":5797:5799   */\n      0x20\n        /* \"#utility.yul\":5786:5795   */\n      dup3\n        /* \"#utility.yul\":5782:5800   */\n      add\n        /* \"#utility.yul\":5774:5800   */\n      swap1\n      pop\n        /* \"#utility.yul\":5846:5855   */\n      dup2\n        /* \"#utility.yul\":5840:5844   */\n      dup2\n        /* \"#utility.yul\":5836:5856   */\n      sub\n        /* \"#utility.yul\":5832:5833   */\n      0x00\n        /* \"#utility.yul\":5821:5830   */\n      dup4\n        /* \"#utility.yul\":5817:5834   */\n      add\n        /* \"#utility.yul\":5810:5857   */\n      mstore\n        /* \"#utility.yul\":5874:6005   */\n      tag_181\n        /* \"#utility.yul\":6000:6004   */\n      dup2\n        /* \"#utility.yul\":5874:6005   */\n      tag_142\n      jump\t// in\n    tag_181:\n        /* \"#utility.yul\":5866:6005   */\n      swap1\n      pop\n        /* \"#utility.yul\":5593:6012   */\n      swap2\n      swap1\n      pop\n      jump\t// out\n        /* \"#utility.yul\":6018:6437   */\n    tag_90:\n        /* \"#utility.yul\":6184:6188   */\n      0x00\n        /* \"#utility.yul\":6222:6224   */\n      0x20\n        /* \"#utility.yul\":6211:6220   */\n      dup3\n        /* \"#utility.yul\":6207:6225   */\n      add\n        /* \"#utility.yul\":6199:6225   */\n      swap1\n      pop\n        /* \"#utility.yul\":6271:6280   */\n      dup2\n        /* \"#utility.yul\":6265:6269   */\n      dup2\n        /* \"#utility.yul\":6261:6281   */\n      sub\n        /* \"#utility.yul\":6257:6258   */\n      0x00\n        /* \"#utility.yul\":6246:6255   */\n      dup4\n        /* \"#utility.yul\":6242:6259   */\n      add\n        /* \"#utility.yul\":6235:6282   */\n      mstore\n        /* \"#utility.yul\":6299:6430   */\n      tag_183\n        /* \"#utility.yul\":6425:6429   */\n      dup2\n        /* \"#utility.yul\":6299:6430   */\n      tag_147\n      jump\t// in\n    tag_183:\n        /* \"#utility.yul\":6291:6430   */\n      swap1\n      pop\n        /* \"#utility.yul\":6018:6437   */\n      swap2\n      swap1\n      pop\n      jump\t// out\n        /* \"#utility.yul\":6443:6862   */\n    tag_69:\n        /* \"#utility.yul\":6609:6613   */\n      0x00\n        /* \"#utility.yul\":6647:6649   */\n      0x20\n        /* \"#utility.yul\":6636:6645   */\n      dup3\n        /* \"#utility.yul\":6632:6650   */\n      add\n        /* \"#utility.yul\":6624:6650   */\n      swap1\n      pop\n        /* \"#utility.yul\":6696:6705   */\n      dup2\n        /* \"#utility.yul\":6690:6694   */\n      dup2\n        /* \"#utility.yul\":6686:6706   */\n      sub\n        /* \"#utility.yul\":6682:6683   */\n      0x00\n        /* \"#utility.yul\":6671:6680   */\n      dup4\n        /* \"#utility.yul\":6667:6684   */\n      add\n        /* \"#utility.yul\":6660:6707   */\n      mstore\n        /* \"#utility.yul\":6724:6855   */\n      tag_185\n        /* \"#utility.yul\":6850:6854   */\n      dup2\n        /* \"#utility.yul\":6724:6855   */\n      tag_152\n      jump\t// in\n    tag_185:\n        /* \"#utility.yul\":6716:6855   */\n      swap1\n      pop\n        /* \"#utility.yul\":6443:6862   */\n      swap2\n      swap1\n      pop\n      jump\t// out\n        /* \"#utility.yul\":6868:7287   */\n    tag_87:\n        /* \"#utility.yul\":7034:7038   */\n      0x00\n        /* \"#utility.yul\":7072:7074   */\n      0x20\n        /* \"#utility.yul\":7061:7070   */\n      dup3\n        /* \"#utility.yul\":7057:7075   */\n      add\n        /* \"#utility.yul\":7049:7075   */\n      swap1\n      pop\n        /* \"#utility.yul\":7121:7130   */\n      dup2\n        /* \"#utility.yul\":7115:7119   */\n      dup2\n        /* \"#utility.yul\":7111:7131   */\n      sub\n        /* \"#utility.yul\":7107:7108   */\n      0x00\n        /* \"#utility.yul\":7096:7105   */\n      dup4\n        /* \"#utility.yul\":7092:7109   */\n      add\n        /* \"#utility.yul\":7085:7132   */\n      mstore\n        /* \"#utility.yul\":7149:7280   */\n      tag_187\n        /* \"#utility.yul\":7275:7279   */\n      dup2\n        /* \"#utility.yul\":7149:7280   */\n      tag_157\n      jump\t// in\n    tag_187:\n        /* \"#utility.yul\":7141:7280   */\n      swap1\n      pop\n        /* \"#utility.yul\":6868:7287   */\n      swap2\n      swap1\n      pop\n      jump\t// out\n        /* \"#utility.yul\":7293:7712   */\n    tag_72:\n        /* \"#utility.yul\":7459:7463   */\n      0x00\n        /* \"#utility.yul\":7497:7499   */\n      0x20\n        /* \"#utility.yul\":7486:7495   */\n      dup3\n        /* \"#utility.yul\":7482:7500   */\n      add\n        /* \"#utility.yul\":7474:7500   */\n      swap1\n      pop\n        /* \"#utility.yul\":7546:7555   */\n      dup2\n        /* \"#utility.yul\":7540:7544   */\n      dup2\n        /* \"#utility.yul\":7536:7556   */\n      sub\n        /* \"#utility.yul\":7532:7533   */\n      0x00\n        /* \"#utility.yul\":7521:7530   */\n      dup4\n        /* \"#utility.yul\":7517:7534   */\n      add\n        /* \"#utility.yul\":7510:7557   */\n      mstore\n        /* \"#utility.yul\":7574:7705   */\n      tag_189\n        /* \"#utility.yul\":7700:7704   */\n      dup2\n        /* \"#utility.yul\":7574:7705   */\n      tag_162\n      jump\t// in\n    tag_189:\n        /* \"#utility.yul\":7566:7705   */\n      swap1\n      pop\n        /* \"#utility.yul\":7293:7712   */\n      swap2\n      swap1\n      pop\n      jump\t// out\n        /* \"#utility.yul\":7718:8137   */\n    tag_81:\n        /* \"#utility.yul\":7884:7888   */\n      0x00\n        /* \"#utility.yul\":7922:7924   */\n      0x20\n        /* \"#utility.yul\":7911:7920   */\n      dup3\n        /* \"#utility.yul\":7907:7925   */\n      add\n        /* \"#utility.yul\":7899:7925   */\n      swap1\n      pop\n        /* \"#utility.yul\":7971:7980   */\n      dup2\n        /* \"#utility.yul\":7965:7969   */\n      dup2\n        /* \"#utility.yul\":7961:7981   */\n      sub\n        /* \"#utility.yul\":7957:7958   */\n      0x00\n        /* \"#utility.yul\":7946:7955   */\n      dup4\n        /* \"#utility.yul\":7942:7959   */\n      add\n        /* \"#utility.yul\":7935:7982   */\n      mstore\n        /* \"#utility.yul\":7999:8130   */\n      tag_191\n        /* \"#utility.yul\":8125:8129   */\n      dup2\n        /* \"#utility.yul\":7999:8130   */\n      tag_167\n      jump\t// in\n    tag_191:\n        /* \"#utility.yul\":7991:8130   */\n      swap1\n      pop\n        /* \"#utility.yul\":7718:8137   */\n      swap2\n      swap1\n      pop\n      jump\t// out\n        /* \"#utility.yul\":8143:8365   */\n    tag_31:\n        /* \"#utility.yul\":8236:8240   */\n      0x00\n        /* \"#utility.yul\":8274:8276   */\n      0x20\n        /* \"#utility.yul\":8263:8272   */\n      dup3\n        /* \"#utility.yul\":8259:8277   */\n      add\n        /* \"#utility.yul\":8251:8277   */\n      swap1\n      pop\n        /* \"#utility.yul\":8287:8358   */\n      tag_193\n        /* \"#utility.yul\":8355:8356   */\n      0x00\n        /* \"#utility.yul\":8344:8353   */\n      dup4\n        /* \"#utility.yul\":8340:8357   */\n      add\n        /* \"#utility.yul\":8331:8337   */\n      dup5\n        /* \"#utility.yul\":8287:8358   */\n      tag_172\n      jump\t// in\n    tag_193:\n        /* \"#utility.yul\":8143:8365   */\n      swap3\n      swap2\n      pop\n      pop\n      jump\t// out\n        /* \"#utility.yul\":8452:8551   */\n    tag_135:\n        /* \"#utility.yul\":8504:8510   */\n      0x00\n        /* \"#utility.yul\":8538:8543   */\n      dup2\n        /* \"#utility.yul\":8532:8544   */\n      mload\n        /* \"#utility.yul\":8522:8544   */\n      swap1\n      pop\n        /* \"#utility.yul\":8452:8551   */\n      swap2\n      swap1\n      pop\n      jump\t// out\n        /* \"#utility.yul\":8557:8726   */\n    tag_137:\n        /* \"#utility.yul\":8641:8652   */\n      0x00\n        /* \"#utility.yul\":8675:8681   */\n      dup3\n        /* \"#utility.yul\":8670:8673   */\n      dup3\n        /* \"#utility.yul\":8663:8682   */\n      mstore\n        /* \"#utility.yul\":8715:8719   */\n      0x20\n        /* \"#utility.yul\":8710:8713   */\n      dup3\n        /* \"#utility.yul\":8706:8720   */\n      add\n        /* \"#utility.yul\":8691:8720   */\n      swap1\n      pop\n        /* \"#utility.yul\":8557:8726   */\n      swap3\n      swap2\n      pop\n      pop\n      jump\t// out\n        /* \"#utility.yul\":8732:9037   */\n    tag_76:\n        /* \"#utility.yul\":8772:8775   */\n      0x00\n        /* \"#utility.yul\":8791:8811   */\n      tag_199\n        /* \"#utility.yul\":8809:8810   */\n      dup3\n        /* \"#utility.yul\":8791:8811   */\n      tag_175\n      jump\t// in\n    tag_199:\n        /* \"#utility.yul\":8786:8811   */\n      swap2\n      pop\n        /* \"#utility.yul\":8825:8845   */\n      tag_200\n        /* \"#utility.yul\":8843:8844   */\n      dup4\n        /* \"#utility.yul\":8825:8845   */\n      tag_175\n      jump\t// in\n    tag_200:\n        /* \"#utility.yul\":8820:8845   */\n      swap3\n      pop\n        /* \"#utility.yul\":8979:8980   */\n      dup3\n        /* \"#utility.yul\":8911:8977   */\n      0xffffffffffffffffffffffffffffffffffffffffffffffffffffffffffffffff\n        /* \"#utility.yul\":8907:8981   */\n      sub\n        /* \"#utility.yul\":8904:8905   */\n      dup3\n        /* \"#utility.yul\":8901:8982   */\n      gt\n        /* \"#utility.yul\":8898:9005   */\n      iszero\n      tag_201\n      jumpi\n        /* \"#utility.yul\":8985:9003   */\n      tag_202\n      tag_203\n      jump\t// in\n    tag_202:\n        /* \"#utility.yul\":8898:9005   */\n    tag_201:\n        /* \"#utility.yul\":9029:9030   */\n      dup3\n        /* \"#utility.yul\":9026:9027   */\n      dup3\n        /* \"#utility.yul\":9022:9031   */\n      add\n        /* \"#utility.yul\":9015:9031   */\n      swap1\n      pop\n        /* \"#utility.yul\":8732:9037   */\n      swap3\n      swap2\n      pop\n      pop\n      jump\t// out\n        /* \"#utility.yul\":9043:9234   */\n    tag_74:\n        /* \"#utility.yul\":9083:9087   */\n      0x00\n        /* \"#utility.yul\":9103:9123   */\n      tag_205\n        /* \"#utility.yul\":9121:9122   */\n      dup3\n        /* \"#utility.yul\":9103:9123   */\n      tag_175\n      jump\t// in\n    tag_205:\n        /* \"#utility.yul\":9098:9123   */\n      swap2\n      pop\n        /* \"#utility.yul\":9137:9157   */\n      tag_206\n        /* \"#utility.yul\":9155:9156   */\n      dup4\n        /* \"#utility.yul\":9137:9157   */\n      tag_175\n      jump\t// in\n    tag_206:\n        /* \"#utility.yul\":9132:9157   */\n      swap3\n      pop\n        /* \"#utility.yul\":9176:9177   */\n      dup3\n        /* \"#utility.yul\":9173:9174   */\n      dup3\n        /* \"#utility.yul\":9170:9178   */\n      lt\n        /* \"#utility.yul\":9167:9201   */\n      iszero\n      tag_207\n      jumpi\n        /* \"#utility.yul\":9181:9199   */\n      tag_208\n      tag_203\n      jump\t// in\n    tag_208:\n        /* \"#utility.yul\":9167:9201   */\n    tag_207:\n        /* \"#utility.yul\":9226:9227   */\n      dup3\n        /* \"#utility.yul\":9223:9224   */\n      dup3\n        /* \"#utility.yul\":9219:9228   */\n      sub\n        /* \"#utility.yul\":9211:9228   */\n      swap1\n      pop\n        /* \"#utility.yul\":9043:9234   */\n      swap3\n      swap2\n      pop\n      pop\n      jump\t// out\n        /* \"#utility.yul\":9240:9336   */\n    tag_209:\n        /* \"#utility.yul\":9277:9284   */\n      0x00\n        /* \"#utility.yul\":9306:9330   */\n      tag_211\n        /* \"#utility.yul\":9324:9329   */\n      dup3\n        /* \"#utility.yul\":9306:9330   */\n      tag_212\n      jump\t// in\n    tag_211:\n        /* \"#utility.yul\":9295:9330   */\n      swap1\n      pop\n        /* \"#utility.yul\":9240:9336   */\n      swap2\n      swap1\n      pop\n      jump\t// out\n        /* \"#utility.yul\":9342:9432   */\n    tag_131:\n        /* \"#utility.yul\":9376:9383   */\n      0x00\n        /* \"#utility.yul\":9419:9424   */\n      dup2\n        /* \"#utility.yul\":9412:9425   */\n      iszero\n        /* \"#utility.yul\":9405:9426   */\n      iszero\n        /* \"#utility.yul\":9394:9426   */\n      swap1\n      pop\n        /* \"#utility.yul\":9342:9432   */\n      swap2\n      swap1\n      pop\n      jump\t// out\n        /* \"#utility.yul\":9438:9564   */\n    tag_212:\n        /* \"#utility.yul\":9475:9482   */\n      0x00\n        /* \"#utility.yul\":9515:9557   */\n      0xffffffffffffffffffffffffffffffffffffffff\n        /* \"#utility.yul\":9508:9513   */\n      dup3\n        /* \"#utility.yul\":9504:9558   */\n      and\n        /* \"#utility.yul\":9493:9558   */\n      swap1\n      pop\n        /* \"#utility.yul\":9438:9564   */\n      swap2\n      swap1\n      pop\n      jump\t// out\n        /* \"#utility.yul\":9570:9647   */\n    tag_175:\n        /* \"#utility.yul\":9607:9614   */\n      0x00\n        /* \"#utility.yul\":9636:9641   */\n      dup2\n        /* \"#utility.yul\":9625:9641   */\n      swap1\n      pop\n        /* \"#utility.yul\":9570:9647   */\n      swap2\n      swap1\n      pop\n      jump\t// out\n        /* \"#utility.yul\":9653:9960   */\n    tag_139:\n        /* \"#utility.yul\":9721:9722   */\n      0x00\n        /* \"#utility.yul\":9731:9844   */\n    tag_217:\n        /* \"#utility.yul\":9745:9751   */\n      dup4\n        /* \"#utility.yul\":9742:9743   */\n      dup2\n        /* \"#utility.yul\":9739:9752   */\n      lt\n        /* \"#utility.yul\":9731:9844   */\n      iszero\n      tag_219\n      jumpi\n        /* \"#utility.yul\":9830:9831   */\n      dup1\n        /* \"#utility.yul\":9825:9828   */\n      dup3\n        /* \"#utility.yul\":9821:9832   */\n      add\n        /* \"#utility.yul\":9815:9833   */\n      mload\n        /* \"#utility.yul\":9811:9812   */\n      dup2\n        /* \"#utility.yul\":9806:9809   */\n      dup5\n        /* \"#utility.yul\":9802:9813   */\n      add\n        /* \"#utility.yul\":9795:9834   */\n      mstore\n        /* \"#utility.yul\":9767:9769   */\n      0x20\n        /* \"#utility.yul\":9764:9765   */\n      dup2\n        /* \"#utility.yul\":9760:9770   */\n      add\n        /* \"#utility.yul\":9755:9770   */\n      swap1\n      pop\n        /* \"#utility.yul\":9731:9844   */\n      jump(tag_217)\n    tag_219:\n        /* \"#utility.yul\":9862:9868   */\n      dup4\n        /* \"#utility.yul\":9859:9860   */\n      dup2\n        /* \"#utility.yul\":9856:9869   */\n      gt\n        /* \"#utility.yul\":9853:9954   */\n      iszero\n      tag_220\n      jumpi\n        /* \"#utility.yul\":9942:9943   */\n      0x00\n        /* \"#utility.yul\":9933:9939   */\n      dup5\n        /* \"#utility.yul\":9928:9931   */\n      dup5\n        /* \"#utility.yul\":9924:9940   */\n      add\n        /* \"#utility.yul\":9917:9944   */\n      mstore\n        /* \"#utility.yul\":9853:9954   */\n    tag_220:\n        /* \"#utility.yul\":9702:9960   */\n      pop\n        /* \"#utility.yul\":9653:9960   */\n      pop\n      pop\n      pop\n      jump\t// out\n        /* \"#utility.yul\":9966:10286   */\n    tag_59:\n        /* \"#utility.yul\":10010:10016   */\n      0x00\n        /* \"#utility.yul\":10047:10048   */\n      0x02\n        /* \"#utility.yul\":10041:10045   */\n      dup3\n        /* \"#utility.yul\":10037:10049   */\n      div\n        /* \"#utility.yul\":10027:10049   */\n      swap1\n      pop\n        /* \"#utility.yul\":10094:10095   */\n      0x01\n        /* \"#utility.yul\":10088:10092   */\n      dup3\n        /* \"#utility.yul\":10084:10096   */\n      and\n        /* \"#utility.yul\":10115:10133   */\n      dup1\n        /* \"#utility.yul\":10105:10186   */\n      tag_222\n      jumpi\n        /* \"#utility.yul\":10171:10175   */\n      0x7f\n        /* \"#utility.yul\":10163:10169   */\n      dup3\n        /* \"#utility.yul\":10159:10176   */\n      and\n        /* \"#utility.yul\":10149:10176   */\n      swap2\n      pop\n        /* \"#utility.yul\":10105:10186   */\n    tag_222:\n        /* \"#utility.yul\":10233:10235   */\n      0x20\n        /* \"#utility.yul\":10225:10231   */\n      dup3\n        /* \"#utility.yul\":10222:10236   */\n      lt\n        /* \"#utility.yul\":10202:10220   */\n      dup2\n        /* \"#utility.yul\":10199:10237   */\n      eq\n        /* \"#utility.yul\":10196:10280   */\n      iszero\n      tag_223\n      jumpi\n        /* \"#utility.yul\":10252:10270   */\n      tag_224\n      tag_225\n      jump\t// in\n    tag_224:\n        /* \"#utility.yul\":10196:10280   */\n    tag_223:\n        /* \"#utility.yul\":10017:10286   */\n      pop\n        /* \"#utility.yul\":9966:10286   */\n      swap2\n      swap1\n      pop\n      jump\t// out\n        /* \"#utility.yul\":10292:10472   */\n    tag_203:\n        /* \"#utility.yul\":10340:10417   */\n      0x4e487b7100000000000000000000000000000000000000000000000000000000\n        /* \"#utility.yul\":10337:10338   */\n      0x00\n        /* \"#utility.yul\":10330:10418   */\n      mstore\n        /* \"#utility.yul\":10437:10441   */\n      0x11\n        /* \"#utility.yul\":10434:10435   */\n      0x04\n        /* \"#utility.yul\":10427:10442   */\n      mstore\n        /* \"#utility.yul\":10461:10465   */\n      0x24\n        /* \"#utility.yul\":10458:10459   */\n      0x00\n        /* \"#utility.yul\":10451:10466   */\n      revert\n        /* \"#utility.yul\":10478:10658   */\n    tag_225:\n        /* \"#utility.yul\":10526:10603   */\n      0x4e487b7100000000000000000000000000000000000000000000000000000000\n        /* \"#utility.yul\":10523:10524   */\n      0x00\n        /* \"#utility.yul\":10516:10604   */\n      mstore\n        /* \"#utility.yul\":10623:10627   */\n      0x22\n        /* \"#utility.yul\":10620:10621   */\n      0x04\n        /* \"#utility.yul\":10613:10628   */\n      mstore\n        /* \"#utility.yul\":10647:10651   */\n      0x24\n        /* \"#utility.yul\":10644:10645   */\n      0x00\n        /* \"#utility.yul\":10637:10652   */\n      revert\n        /* \"#utility.yul\":10787:10904   */\n    tag_110:\n        /* \"#utility.yul\":10896:10897   */\n      0x00\n        /* \"#utility.yul\":10893:10894   */\n      dup1\n        /* \"#utility.yul\":10886:10898   */\n      revert\n        /* \"#utility.yul\":10910:11012   */\n    tag_141:\n        /* \"#utility.yul\":10951:10957   */\n      0x00\n        /* \"#utility.yul\":11002:11004   */\n      0x1f\n        /* \"#utility.yul\":10998:11005   */\n      not\n        /* \"#utility.yul\":10993:10995   */\n      0x1f\n        /* \"#utility.yul\":10986:10991   */\n      dup4\n        /* \"#utility.yul\":10982:10996   */\n      add\n        /* \"#utility.yul\":10978:11006   */\n      and\n        /* \"#utility.yul\":10968:11006   */\n      swap1\n      pop\n        /* \"#utility.yul\":10910:11012   */\n      swap2\n      swap1\n      pop\n      jump\t// out\n        /* \"#utility.yul\":11018:11240   */\n    tag_146:\n        /* \"#utility.yul\":11158:11192   */\n      0x45524332303a207472616e7366657220746f20746865207a65726f2061646472\n        /* \"#utility.yul\":11154:11155   */\n      0x00\n        /* \"#utility.yul\":11146:11152   */\n      dup3\n        /* \"#utility.yul\":11142:11156   */\n      add\n        /* \"#utility.yul\":11135:11193   */\n      mstore\n        /* \"#utility.yul\":11227:11232   */\n      0x6573730000000000000000000000000000000000000000000000000000000000\n        /* \"#utility.yul\":11222:11224   */\n      0x20\n        /* \"#utility.yul\":11214:11220   */\n      dup3\n        /* \"#utility.yul\":11210:11225   */\n      add\n        /* \"#utility.yul\":11203:11233   */\n      mstore\n        /* \"#utility.yul\":11018:11240   */\n      pop\n      jump\t// out\n        /* \"#utility.yul\":11246:11421   */\n    tag_151:\n        /* \"#utility.yul\":11386:11413   */\n      0x45524332303a20616c6c6f77616e636520657863656564656400000000000000\n        /* \"#utility.yul\":11382:11383   */\n      0x00\n        /* \"#utility.yul\":11374:11380   */\n      dup3\n        /* \"#utility.yul\":11370:11384   */\n      add\n        /* \"#utility.yul\":11363:11414   */\n      mstore\n        /* \"#utility.yul\":11246:11421   */\n      pop\n      jump\t// out\n        /* \"#utility.yul\":11427:11595   */\n    tag_156:\n        /* \"#utility.yul\":11567:11587   */\n      0x496e73756666696369656e742046756e64730000000000000000000000000000\n        /* \"#utility.yul\":11563:11564   */\n      0x00\n        /* \"#utility.yul\":11555:11561   */\n      dup3\n        /* \"#utility.yul\":11551:11565   */\n      add\n        /* \"#utility.yul\":11544:11588   */\n      mstore\n        /* \"#utility.yul\":11427:11595   */\n      pop\n      jump\t// out\n        /* \"#utility.yul\":11601:11778   */\n    tag_161:\n        /* \"#utility.yul\":11741:11770   */\n      0x45524332303a20696e73756666696369656e742062616c616e63650000000000\n        /* \"#utility.yul\":11737:11738   */\n      0x00\n        /* \"#utility.yul\":11729:11735   */\n      dup3\n        /* \"#utility.yul\":11725:11739   */\n      add\n        /* \"#utility.yul\":11718:11771   */\n      mstore\n        /* \"#utility.yul\":11601:11778   */\n      pop\n      jump\t// out\n        /* \"#utility.yul\":11784:11961   */\n    tag_166:\n        /* \"#utility.yul\":11924:11953   */\n      0x496e76616c69642064657374696e6174696f6e20616464726573730000000000\n        /* \"#utility.yul\":11920:11921   */\n      0x00\n        /* \"#utility.yul\":11912:11918   */\n      dup3\n        /* \"#utility.yul\":11908:11922   */\n      add\n        /* \"#utility.yul\":11901:11954   */\n      mstore\n        /* \"#utility.yul\":11784:11961   */\n      pop\n      jump\t// out\n        /* \"#utility.yul\":11967:12191   */\n    tag_171:\n        /* \"#utility.yul\":12107:12141   */\n      0x45524332303a207472616e736665722066726f6d20746865207a65726f206164\n        /* \"#utility.yul\":12103:12104   */\n      0x00\n        /* \"#utility.yul\":12095:12101   */\n      dup3\n        /* \"#utility.yul\":12091:12105   */\n      add\n        /* \"#utility.yul\":12084:12142   */\n      mstore\n        /* \"#utility.yul\":12176:12183   */\n      0x6472657373000000000000000000000000000000000000000000000000000000\n        /* \"#utility.yul\":12171:12173   */\n      0x20\n        /* \"#utility.yul\":12163:12169   */\n      dup3\n        /* \"#utility.yul\":12159:12174   */\n      add\n        /* \"#utility.yul\":12152:12184   */\n      mstore\n        /* \"#utility.yul\":11967:12191   */\n      pop\n      jump\t// out\n        /* \"#utility.yul\":12197:12319   */\n    tag_102:\n        /* \"#utility.yul\":12270:12294   */\n      tag_239\n        /* \"#utility.yul\":12288:12293   */\n      dup2\n        /* \"#utility.yul\":12270:12294   */\n      tag_209\n      jump\t// in\n    tag_239:\n        /* \"#utility.yul\":12263:12268   */\n      dup2\n        /* \"#utility.yul\":12260:12295   */\n      eq\n        /* \"#utility.yul\":12250:12313   */\n      tag_240\n      jumpi\n        /* \"#utility.yul\":12309:12310   */\n      0x00\n        /* \"#utility.yul\":12306:12307   */\n      dup1\n        /* \"#utility.yul\":12299:12311   */\n      revert\n        /* \"#utility.yul\":12250:12313   */\n    tag_240:\n        /* \"#utility.yul\":12197:12319   */\n      pop\n      jump\t// out\n        /* \"#utility.yul\":12325:12447   */\n    tag_106:\n        /* \"#utility.yul\":12398:12422   */\n      tag_242\n        /* \"#utility.yul\":12416:12421   */\n      dup2\n        /* \"#utility.yul\":12398:12422   */\n      tag_175\n      jump\t// in\n    tag_242:\n        /* \"#utility.yul\":12391:12396   */\n      dup2\n        /* \"#utility.yul\":12388:12423   */\n      eq\n        /* \"#utility.yul\":12378:12441   */\n      tag_243\n      jumpi\n        /* \"#utility.yul\":12437:12438   */\n      0x00\n        /* \"#utility.yul\":12434:12435   */\n      dup1\n        /* \"#utility.yul\":12427:12439   */\n      revert\n        /* \"#utility.yul\":12378:12441   */\n    tag_243:\n        /* \"#utility.yul\":12325:12447   */\n      pop\n      jump\t// out\n\n    auxdata: 0xa2646970667358221220dac1d7e68eed4bb3ab2f19d93c7b62be2f904319665241a5e2bd9fba6991d95364736f6c63430008070033\n}\n",
				"bytecode": {
					"linkReferences": {},
					"object": "60806040526040518060400160405280600a81526020017f426c756520546f6b656e000000000000000000000000000000000000000000008152506000908051906020019062000051929190620000f3565b503480156200005f57600080fd5b50604051620015f8380380620015f8833981810160405281019062000085919062000238565b81600090805190602001906200009d929190620000f3565b5080600181905550600154600260003373ffffffffffffffffffffffffffffffffffffffff1673ffffffffffffffffffffffffffffffffffffffff16815260200190815260200160002081905550505062000446565b82805462000101906200033d565b90600052602060002090601f01602090048101928262000125576000855562000171565b82601f106200014057805160ff191683800117855562000171565b8280016001018555821562000171579182015b828111156200017057825182559160200191906001019062000153565b5b50905062000180919062000184565b5090565b5b808211156200019f57600081600090555060010162000185565b5090565b6000620001ba620001b484620002c7565b6200029e565b905082815260208101848484011115620001d957620001d86200040c565b5b620001e684828562000307565b509392505050565b600082601f83011262000206576200020562000407565b5b815162000218848260208601620001a3565b91505092915050565b60008151905062000232816200042c565b92915050565b6000806040838503121562000252576200025162000416565b5b600083015167ffffffffffffffff81111562000273576200027262000411565b5b6200028185828601620001ee565b9250506020620002948582860162000221565b9150509250929050565b6000620002aa620002bd565b9050620002b8828262000373565b919050565b6000604051905090565b600067ffffffffffffffff821115620002e557620002e4620003d8565b5b620002f0826200041b565b9050602081019050919050565b6000819050919050565b60005b83811015620003275780820151818401526020810190506200030a565b8381111562000337576000848401525b50505050565b600060028204905060018216806200035657607f821691505b602082108114156200036d576200036c620003a9565b5b50919050565b6200037e826200041b565b810181811067ffffffffffffffff82111715620003a0576200039f620003d8565b5b80604052505050565b7f4e487b7100000000000000000000000000000000000000000000000000000000600052602260045260246000fd5b7f4e487b7100000000000000000000000000000000000000000000000000000000600052604160045260246000fd5b600080fd5b600080fd5b600080fd5b600080fd5b6000601f19601f8301169050919050565b6200043781620002fd565b81146200044357600080fd5b50565b6111a280620004566000396000f3fe608060405234801561001057600080fd5b506004361061009e5760003560e01c806327e235e31161006657806327e235e31461016f57806355b6ed5c1461019f5780639b5f2af4146101cf578063b99152d0146101ed578063dd62ed3e1461021d5761009e565b806306fdde03146100a3578063095ea7b3146100c15780631072cbea146100f157806318160ddd1461012157806323b872dd1461013f575b600080fd5b6100ab61024d565b6040516100b89190610d38565b60405180910390f35b6100db60048036038101906100d69190610bb4565b6102db565b6040516100e89190610d1d565b60405180910390f35b61010b60048036038101906101069190610bb4565b6103cd565b6040516101189190610d1d565b60405180910390f35b6101296105dc565b6040516101369190610e1a565b60405180910390f35b61015960048036038101906101549190610b61565b6105e2565b6040516101669190610d1d565b60405180910390f35b61018960048036038101906101849190610af4565b6109b3565b6040516101969190610e1a565b60405180910390f35b6101b960048036038101906101b49190610b21565b6109cb565b6040516101c69190610e1a565b60405180910390f35b6101d76109f0565b6040516101e49190610e1a565b60405180910390f35b61020760048036038101906102029190610af4565b6109fa565b6040516102149190610e1a565b60405180910390f35b61023760048036038101906102329190610b21565b610a43565b6040516102449190610e1a565b60405180910390f35b6000805461025a90610f56565b80601f016020809104026020016040519081016040528092919081815260200182805461028690610f56565b80156102d35780601f106102a8576101008083540402835291602001916102d3565b820191906000526020600020905b8154815290600101906020018083116102b657829003601f168201915b505050505081565b600081600360003373ffffffffffffffffffffffffffffffffffffffff1673ffffffffffffffffffffffffffffffffffffffff16815260200190815260200160002060008573ffffffffffffffffffffffffffffffffffffffff1673ffffffffffffffffffffffffffffffffffffffff168152602001908152602001600020819055508273ffffffffffffffffffffffffffffffffffffffff163373ffffffffffffffffffffffffffffffffffffffff167f6e11fb1b7f119e3f2fa29896ef5fdf8b8a2d0d4df6fe90ba8668e7d8b2ffa25e846040516103bb9190610e1a565b60405180910390a36001905092915050565b600081600260003373ffffffffffffffffffffffffffffffffffffffff1673ffffffffffffffffffffffffffffffffffffffff168152602001908152602001600020541015610451576040517f08c379a000000000000000000000000000000000000000000000000000000000815260040161044890610d9a565b60405180910390fd5b600073ffffffffffffffffffffffffffffffffffffffff168373ffffffffffffffffffffffffffffffffffffffff1614156104c1576040517f08c379a00000000000000000000000000000000000000000000000000000000081526004016104b890610dda565b60405180910390fd5b81600260003373ffffffffffffffffffffffffffffffffffffffff1673ffffffffffffffffffffffffffffffffffffffff16815260200190815260200160002060008282546105109190610ea7565b9250508190555081600260008573ffffffffffffffffffffffffffffffffffffffff1673ffffffffffffffffffffffffffffffffffffffff16815260200190815260200160002060008282546105669190610e51565b925050819055508273ffffffffffffffffffffffffffffffffffffffff163373ffffffffffffffffffffffffffffffffffffffff167fddf252ad1be2c89b69c2b068fc378daa952ba7f163c4a11628f55a4df523b3ef846040516105ca9190610e1a565b60405180910390a36001905092915050565b60015481565b60008073ffffffffffffffffffffffffffffffffffffffff168473ffffffffffffffffffffffffffffffffffffffff161415610653576040517f08c379a000000000000000000000000000000000000000000000000000000000815260040161064a90610dfa565b60405180910390fd5b600073ffffffffffffffffffffffffffffffffffffffff168373ffffffffffffffffffffffffffffffffffffffff1614156106c3576040517f08c379a00000000000000000000000000000000000000000000000000000000081526004016106ba90610d5a565b60405180910390fd5b81600260008673ffffffffffffffffffffffffffffffffffffffff1673ffffffffffffffffffffffffffffffffffffffff168152602001908152602001600020541015610745576040517f08c379a000000000000000000000000000000000000000000000000000000000815260040161073c90610dba565b60405180910390fd5b81600360008673ffffffffffffffffffffffffffffffffffffffff1673ffffffffffffffffffffffffffffffffffffffff16815260200190815260200160002060003373ffffffffffffffffffffffffffffffffffffffff1673ffffffffffffffffffffffffffffffffffffffff168152602001908152602001600020541015610804576040517f08c379a00000000000000000000000000000000000000000000000000000000081526004016107fb90610d7a565b60405180910390fd5b81600260008673ffffffffffffffffffffffffffffffffffffffff1673ffffffffffffffffffffffffffffffffffffffff16815260200190815260200160002060008282546108539190610ea7565b9250508190555081600260008573ffffffffffffffffffffffffffffffffffffffff1673ffffffffffffffffffffffffffffffffffffffff16815260200190815260200160002060008282546108a99190610e51565b9250508190555081600360008673ffffffffffffffffffffffffffffffffffffffff1673ffffffffffffffffffffffffffffffffffffffff16815260200190815260200160002060003373ffffffffffffffffffffffffffffffffffffffff1673ffffffffffffffffffffffffffffffffffffffff168152602001908152602001600020600082825461093c9190610ea7565b925050819055508273ffffffffffffffffffffffffffffffffffffffff168473ffffffffffffffffffffffffffffffffffffffff167fddf252ad1be2c89b69c2b068fc378daa952ba7f163c4a11628f55a4df523b3ef846040516109a09190610e1a565b60405180910390a3600190509392505050565b60026020528060005260406000206000915090505481565b6003602052816000526040600020602052806000526040600020600091509150505481565b6000600154905090565b6000600260008373ffffffffffffffffffffffffffffffffffffffff1673ffffffffffffffffffffffffffffffffffffffff168152602001908152602001600020549050919050565b6000600360008473ffffffffffffffffffffffffffffffffffffffff1673ffffffffffffffffffffffffffffffffffffffff16815260200190815260200160002060008373ffffffffffffffffffffffffffffffffffffffff1673ffffffffffffffffffffffffffffffffffffffff16815260200190815260200160002054905092915050565b600081359050610ad98161113e565b92915050565b600081359050610aee81611155565b92915050565b600060208284031215610b0a57610b09610fe6565b5b6000610b1884828501610aca565b91505092915050565b60008060408385031215610b3857610b37610fe6565b5b6000610b4685828601610aca565b9250506020610b5785828601610aca565b9150509250929050565b600080600060608486031215610b7a57610b79610fe6565b5b6000610b8886828701610aca565b9350506020610b9986828701610aca565b9250506040610baa86828701610adf565b9150509250925092565b60008060408385031215610bcb57610bca610fe6565b5b6000610bd985828601610aca565b9250506020610bea85828601610adf565b9150509250929050565b610bfd81610eed565b82525050565b6000610c0e82610e35565b610c188185610e40565b9350610c28818560208601610f23565b610c3181610feb565b840191505092915050565b6000610c49602383610e40565b9150610c5482610ffc565b604082019050919050565b6000610c6c601983610e40565b9150610c778261104b565b602082019050919050565b6000610c8f601283610e40565b9150610c9a82611074565b602082019050919050565b6000610cb2601b83610e40565b9150610cbd8261109d565b602082019050919050565b6000610cd5601b83610e40565b9150610ce0826110c6565b602082019050919050565b6000610cf8602583610e40565b9150610d03826110ef565b604082019050919050565b610d1781610f19565b82525050565b6000602082019050610d326000830184610bf4565b92915050565b60006020820190508181036000830152610d528184610c03565b905092915050565b60006020820190508181036000830152610d7381610c3c565b9050919050565b60006020820190508181036000830152610d9381610c5f565b9050919050565b60006020820190508181036000830152610db381610c82565b9050919050565b60006020820190508181036000830152610dd381610ca5565b9050919050565b60006020820190508181036000830152610df381610cc8565b9050919050565b60006020820190508181036000830152610e1381610ceb565b9050919050565b6000602082019050610e2f6000830184610d0e565b92915050565b600081519050919050565b600082825260208201905092915050565b6000610e5c82610f19565b9150610e6783610f19565b9250827fffffffffffffffffffffffffffffffffffffffffffffffffffffffffffffffff03821115610e9c57610e9b610f88565b5b828201905092915050565b6000610eb282610f19565b9150610ebd83610f19565b925082821015610ed057610ecf610f88565b5b828203905092915050565b6000610ee682610ef9565b9050919050565b60008115159050919050565b600073ffffffffffffffffffffffffffffffffffffffff82169050919050565b6000819050919050565b60005b83811015610f41578082015181840152602081019050610f26565b83811115610f50576000848401525b50505050565b60006002820490506001821680610f6e57607f821691505b60208210811415610f8257610f81610fb7565b5b50919050565b7f4e487b7100000000000000000000000000000000000000000000000000000000600052601160045260246000fd5b7f4e487b7100000000000000000000000000000000000000000000000000000000600052602260045260246000fd5b600080fd5b6000601f19601f8301169050919050565b7f45524332303a207472616e7366657220746f20746865207a65726f206164647260008201527f6573730000000000000000000000000000000000000000000000000000000000602082015250565b7f45524332303a20616c6c6f77616e636520657863656564656400000000000000600082015250565b7f496e73756666696369656e742046756e64730000000000000000000000000000600082015250565b7f45524332303a20696e73756666696369656e742062616c616e63650000000000600082015250565b7f496e76616c69642064657374696e6174696f6e20616464726573730000000000600082015250565b7f45524332303a207472616e736665722066726f6d20746865207a65726f20616460008201527f6472657373000000000000000000000000000000000000000000000000000000602082015250565b61114781610edb565b811461115257600080fd5b50565b61115e81610f19565b811461116957600080fd5b5056fea2646970667358221220dac1d7e68eed4bb3ab2f19d93c7b62be2f904319665241a5e2bd9fba6991d95364736f6c63430008070033",
					"opcodes": "PUSH1 0x80 PUSH1 0x40 MSTORE PUSH1 0x40 MLOAD DUP1 PUSH1 0x40 ADD PUSH1 0x40 MSTORE DUP1 PUSH1 0xA DUP2 MSTORE PUSH1 0x20 ADD PUSH32 0x426C756520546F6B656E00000000000000000000000000000000000000000000 DUP2 MSTORE POP PUSH1 0x0 SWAP1 DUP1 MLOAD SWAP1 PUSH1 0x20 ADD SWAP1 PUSH3 0x51 SWAP3 SWAP2 SWAP1 PUSH3 0xF3 JUMP JUMPDEST POP CALLVALUE DUP1 ISZERO PUSH3 0x5F JUMPI PUSH1 0x0 DUP1 REVERT JUMPDEST POP PUSH1 0x40 MLOAD PUSH3 0x15F8 CODESIZE SUB DUP1 PUSH3 0x15F8 DUP4 CODECOPY DUP2 DUP2 ADD PUSH1 0x40 MSTORE DUP2 ADD SWAP1 PUSH3 0x85 SWAP2 SWAP1 PUSH3 0x238 JUMP JUMPDEST DUP2 PUSH1 0x0 SWAP1 DUP1 MLOAD SWAP1 PUSH1 0x20 ADD SWAP1 PUSH3 0x9D SWAP3 SWAP2 SWAP1 PUSH3 0xF3 JUMP JUMPDEST POP DUP1 PUSH1 0x1 DUP2 SWAP1 SSTORE POP PUSH1 0x1 SLOAD PUSH1 0x2 PUSH1 0x0 CALLER PUSH20 0xFFFFFFFFFFFFFFFFFFFFFFFFFFFFFFFFFFFFFFFF AND PUSH20 0xFFFFFFFFFFFFFFFFFFFFFFFFFFFFFFFFFFFFFFFF AND DUP2 MSTORE PUSH1 0x20 ADD SWAP1 DUP2 MSTORE PUSH1 0x20 ADD PUSH1 0x0 KECCAK256 DUP2 SWAP1 SSTORE POP POP POP PUSH3 0x446 JUMP JUMPDEST DUP3 DUP1 SLOAD PUSH3 0x101 SWAP1 PUSH3 0x33D JUMP JUMPDEST SWAP1 PUSH1 0x0 MSTORE PUSH1 0x20 PUSH1 0x0 KECCAK256 SWAP1 PUSH1 0x1F ADD PUSH1 0x20 SWAP1 DIV DUP2 ADD SWAP3 DUP3 PUSH3 0x125 JUMPI PUSH1 0x0 DUP6 SSTORE PUSH3 0x171 JUMP JUMPDEST DUP3 PUSH1 0x1F LT PUSH3 0x140 JUMPI DUP1 MLOAD PUSH1 0xFF NOT AND DUP4 DUP1 ADD OR DUP6 SSTORE PUSH3 0x171 JUMP JUMPDEST DUP3 DUP1 ADD PUSH1 0x1 ADD DUP6 SSTORE DUP3 ISZERO PUSH3 0x171 JUMPI SWAP2 DUP3 ADD JUMPDEST DUP3 DUP2 GT ISZERO PUSH3 0x170 JUMPI DUP3 MLOAD DUP3 SSTORE SWAP2 PUSH1 0x20 ADD SWAP2 SWAP1 PUSH1 0x1 ADD SWAP1 PUSH3 0x153 JUMP JUMPDEST JUMPDEST POP SWAP1 POP PUSH3 0x180 SWAP2 SWAP1 PUSH3 0x184 JUMP JUMPDEST POP SWAP1 JUMP JUMPDEST JUMPDEST DUP1 DUP3 GT ISZERO PUSH3 0x19F JUMPI PUSH1 0x0 DUP2 PUSH1 0x0 SWAP1 SSTORE POP PUSH1 0x1 ADD PUSH3 0x185 JUMP JUMPDEST POP SWAP1 JUMP JUMPDEST PUSH1 0x0 PUSH3 0x1BA PUSH3 0x1B4 DUP5 PUSH3 0x2C7 JUMP JUMPDEST PUSH3 0x29E JUMP JUMPDEST SWAP1 POP DUP3 DUP2 MSTORE PUSH1 0x20 DUP2 ADD DUP5 DUP5 DUP5 ADD GT ISZERO PUSH3 0x1D9 JUMPI PUSH3 0x1D8 PUSH3 0x40C JUMP JUMPDEST JUMPDEST PUSH3 0x1E6 DUP5 DUP3 DUP6 PUSH3 0x307 JUMP JUMPDEST POP SWAP4 SWAP3 POP POP POP JUMP JUMPDEST PUSH1 0x0 DUP3 PUSH1 0x1F DUP4 ADD SLT PUSH3 0x206 JUMPI PUSH3 0x205 PUSH3 0x407 JUMP JUMPDEST JUMPDEST DUP2 MLOAD PUSH3 0x218 DUP5 DUP3 PUSH1 0x20 DUP7 ADD PUSH3 0x1A3 JUMP JUMPDEST SWAP2 POP POP SWAP3 SWAP2 POP POP JUMP JUMPDEST PUSH1 0x0 DUP2 MLOAD SWAP1 POP PUSH3 0x232 DUP2 PUSH3 0x42C JUMP JUMPDEST SWAP3 SWAP2 POP POP JUMP JUMPDEST PUSH1 0x0 DUP1 PUSH1 0x40 DUP4 DUP6 SUB SLT ISZERO PUSH3 0x252 JUMPI PUSH3 0x251 PUSH3 0x416 JUMP JUMPDEST JUMPDEST PUSH1 0x0 DUP4 ADD MLOAD PUSH8 0xFFFFFFFFFFFFFFFF DUP2 GT ISZERO PUSH3 0x273 JUMPI PUSH3 0x272 PUSH3 0x411 JUMP JUMPDEST JUMPDEST PUSH3 0x281 DUP6 DUP3 DUP7 ADD PUSH3 0x1EE JUMP JUMPDEST SWAP3 POP POP PUSH1 0x20 PUSH3 0x294 DUP6 DUP3 DUP7 ADD PUSH3 0x221 JUMP JUMPDEST SWAP2 POP POP SWAP3 POP SWAP3 SWAP1 POP JUMP JUMPDEST PUSH1 0x0 PUSH3 0x2AA PUSH3 0x2BD JUMP JUMPDEST SWAP1 POP PUSH3 0x2B8 DUP3 DUP3 PUSH3 0x373 JUMP JUMPDEST SWAP2 SWAP1 POP JUMP JUMPDEST PUSH1 0x0 PUSH1 0x40 MLOAD SWAP1 POP SWAP1 JUMP JUMPDEST PUSH1 0x0 PUSH8 0xFFFFFFFFFFFFFFFF DUP3 GT ISZERO PUSH3 0x2E5 JUMPI PUSH3 0x2E4 PUSH3 0x3D8 JUMP JUMPDEST JUMPDEST PUSH3 0x2F0 DUP3 PUSH3 0x41B JUMP JUMPDEST SWAP1 POP PUSH1 0x20 DUP2 ADD SWAP1 POP SWAP2 SWAP1 POP JUMP JUMPDEST PUSH1 0x0 DUP2 SWAP1 POP SWAP2 SWAP1 POP JUMP JUMPDEST PUSH1 0x0 JUMPDEST DUP4 DUP2 LT ISZERO PUSH3 0x327 JUMPI DUP1 DUP3 ADD MLOAD DUP2 DUP5 ADD MSTORE PUSH1 0x20 DUP2 ADD SWAP1 POP PUSH3 0x30A JUMP JUMPDEST DUP4 DUP2 GT ISZERO PUSH3 0x337 JUMPI PUSH1 0x0 DUP5 DUP5 ADD MSTORE JUMPDEST POP POP POP POP JUMP JUMPDEST PUSH1 0x0 PUSH1 0x2 DUP3 DIV SWAP1 POP PUSH1 0x1 DUP3 AND DUP1 PUSH3 0x356 JUMPI PUSH1 0x7F DUP3 AND SWAP2 POP JUMPDEST PUSH1 0x20 DUP3 LT DUP2 EQ ISZERO PUSH3 0x36D JUMPI PUSH3 0x36C PUSH3 0x3A9 JUMP JUMPDEST JUMPDEST POP SWAP2 SWAP1 POP JUMP JUMPDEST PUSH3 0x37E DUP3 PUSH3 0x41B JUMP JUMPDEST DUP2 ADD DUP2 DUP2 LT PUSH8 0xFFFFFFFFFFFFFFFF DUP3 GT OR ISZERO PUSH3 0x3A0 JUMPI PUSH3 0x39F PUSH3 0x3D8 JUMP JUMPDEST JUMPDEST DUP1 PUSH1 0x40 MSTORE POP POP POP JUMP JUMPDEST PUSH32 0x4E487B7100000000000000000000000000000000000000000000000000000000 PUSH1 0x0 MSTORE PUSH1 0x22 PUSH1 0x4 MSTORE PUSH1 0x24 PUSH1 0x0 REVERT JUMPDEST PUSH32 0x4E487B7100000000000000000000000000000000000000000000000000000000 PUSH1 0x0 MSTORE PUSH1 0x41 PUSH1 0x4 MSTORE PUSH1 0x24 PUSH1 0x0 REVERT JUMPDEST PUSH1 0x0 DUP1 REVERT JUMPDEST PUSH1 0x0 DUP1 REVERT JUMPDEST PUSH1 0x0 DUP1 REVERT JUMPDEST PUSH1 0x0 DUP1 REVERT JUMPDEST PUSH1 0x0 PUSH1 0x1F NOT PUSH1 0x1F DUP4 ADD AND SWAP1 POP SWAP2 SWAP1 POP JUMP JUMPDEST PUSH3 0x437 DUP2 PUSH3 0x2FD JUMP JUMPDEST DUP2 EQ PUSH3 0x443 JUMPI PUSH1 0x0 DUP1 REVERT JUMPDEST POP JUMP JUMPDEST PUSH2 0x11A2 DUP1 PUSH3 0x456 PUSH1 0x0 CODECOPY PUSH1 0x0 RETURN INVALID PUSH1 0x80 PUSH1 0x40 MSTORE CALLVALUE DUP1 ISZERO PUSH2 0x10 JUMPI PUSH1 0x0 DUP1 REVERT JUMPDEST POP PUSH1 0x4 CALLDATASIZE LT PUSH2 0x9E JUMPI PUSH1 0x0 CALLDATALOAD PUSH1 0xE0 SHR DUP1 PUSH4 0x27E235E3 GT PUSH2 0x66 JUMPI DUP1 PUSH4 0x27E235E3 EQ PUSH2 0x16F JUMPI DUP1 PUSH4 0x55B6ED5C EQ PUSH2 0x19F JUMPI DUP1 PUSH4 0x9B5F2AF4 EQ PUSH2 0x1CF JUMPI DUP1 PUSH4 0xB99152D0 EQ PUSH2 0x1ED JUMPI DUP1 PUSH4 0xDD62ED3E EQ PUSH2 0x21D JUMPI PUSH2 0x9E JUMP JUMPDEST DUP1 PUSH4 0x6FDDE03 EQ PUSH2 0xA3 JUMPI DUP1 PUSH4 0x95EA7B3 EQ PUSH2 0xC1 JUMPI DUP1 PUSH4 0x1072CBEA EQ PUSH2 0xF1 JUMPI DUP1 PUSH4 0x18160DDD EQ PUSH2 0x121 JUMPI DUP1 PUSH4 0x23B872DD EQ PUSH2 0x13F JUMPI JUMPDEST PUSH1 0x0 DUP1 REVERT JUMPDEST PUSH2 0xAB PUSH2 0x24D JUMP JUMPDEST PUSH1 0x40 MLOAD PUSH2 0xB8 SWAP2 SWAP1 PUSH2 0xD38 JUMP JUMPDEST PUSH1 0x40 MLOAD DUP1 SWAP2 SUB SWAP1 RETURN JUMPDEST PUSH2 0xDB PUSH1 0x4 DUP1 CALLDATASIZE SUB DUP2 ADD SWAP1 PUSH2 0xD6 SWAP2 SWAP1 PUSH2 0xBB4 JUMP JUMPDEST PUSH2 0x2DB JUMP JUMPDEST PUSH1 0x40 MLOAD PUSH2 0xE8 SWAP2 SWAP1 PUSH2 0xD1D JUMP JUMPDEST PUSH1 0x40 MLOAD DUP1 SWAP2 SUB SWAP1 RETURN JUMPDEST PUSH2 0x10B PUSH1 0x4 DUP1 CALLDATASIZE SUB DUP2 ADD SWAP1 PUSH2 0x106 SWAP2 SWAP1 PUSH2 0xBB4 JUMP JUMPDEST PUSH2 0x3CD JUMP JUMPDEST PUSH1 0x40 MLOAD PUSH2 0x118 SWAP2 SWAP1 PUSH2 0xD1D JUMP JUMPDEST PUSH1 0x40 MLOAD DUP1 SWAP2 SUB SWAP1 RETURN JUMPDEST PUSH2 0x129 PUSH2 0x5DC JUMP JUMPDEST PUSH1 0x40 MLOAD PUSH2 0x136 SWAP2 SWAP1 PUSH2 0xE1A JUMP JUMPDEST PUSH1 0x40 MLOAD DUP1 SWAP2 SUB SWAP1 RETURN JUMPDEST PUSH2 0x159 PUSH1 0x4 DUP1 CALLDATASIZE SUB DUP2 ADD SWAP1 PUSH2 0x154 SWAP2 SWAP1 PUSH2 0xB61 JUMP JUMPDEST PUSH2 0x5E2 JUMP JUMPDEST PUSH1 0x40 MLOAD PUSH2 0x166 SWAP2 SWAP1 PUSH2 0xD1D JUMP JUMPDEST PUSH1 0x40 MLOAD DUP1 SWAP2 SUB SWAP1 RETURN JUMPDEST PUSH2 0x189 PUSH1 0x4 DUP1 CALLDATASIZE SUB DUP2 ADD SWAP1 PUSH2 0x184 SWAP2 SWAP1 PUSH2 0xAF4 JUMP JUMPDEST PUSH2 0x9B3 JUMP JUMPDEST PUSH1 0x40 MLOAD PUSH2 0x196 SWAP2 SWAP1 PUSH2 0xE1A JUMP JUMPDEST PUSH1 0x40 MLOAD DUP1 SWAP2 SUB SWAP1 RETURN JUMPDEST PUSH2 0x1B9 PUSH1 0x4 DUP1 CALLDATASIZE SUB DUP2 ADD SWAP1 PUSH2 0x1B4 SWAP2 SWAP1 PUSH2 0xB21 JUMP JUMPDEST PUSH2 0x9CB JUMP JUMPDEST PUSH1 0x40 MLOAD PUSH2 0x1C6 SWAP2 SWAP1 PUSH2 0xE1A JUMP JUMPDEST PUSH1 0x40 MLOAD DUP1 SWAP2 SUB SWAP1 RETURN JUMPDEST PUSH2 0x1D7 PUSH2 0x9F0 JUMP JUMPDEST PUSH1 0x40 MLOAD PUSH2 0x1E4 SWAP2 SWAP1 PUSH2 0xE1A JUMP JUMPDEST PUSH1 0x40 MLOAD DUP1 SWAP2 SUB SWAP1 RETURN JUMPDEST PUSH2 0x207 PUSH1 0x4 DUP1 CALLDATASIZE SUB DUP2 ADD SWAP1 PUSH2 0x202 SWAP2 SWAP1 PUSH2 0xAF4 JUMP JUMPDEST PUSH2 0x9FA JUMP JUMPDEST PUSH1 0x40 MLOAD PUSH2 0x214 SWAP2 SWAP1 PUSH2 0xE1A JUMP JUMPDEST PUSH1 0x40 MLOAD DUP1 SWAP2 SUB SWAP1 RETURN JUMPDEST PUSH2 0x237 PUSH1 0x4 DUP1 CALLDATASIZE SUB DUP2 ADD SWAP1 PUSH2 0x232 SWAP2 SWAP1 PUSH2 0xB21 JUMP JUMPDEST PUSH2 0xA43 JUMP JUMPDEST PUSH1 0x40 MLOAD PUSH2 0x244 SWAP2 SWAP1 PUSH2 0xE1A JUMP JUMPDEST PUSH1 0x40 MLOAD DUP1 SWAP2 SUB SWAP1 RETURN JUMPDEST PUSH1 0x0 DUP1 SLOAD PUSH2 0x25A SWAP1 PUSH2 0xF56 JUMP JUMPDEST DUP1 PUSH1 0x1F ADD PUSH1 0x20 DUP1 SWAP2 DIV MUL PUSH1 0x20 ADD PUSH1 0x40 MLOAD SWAP1 DUP2 ADD PUSH1 0x40 MSTORE DUP1 SWAP3 SWAP2 SWAP1 DUP2 DUP2 MSTORE PUSH1 0x20 ADD DUP3 DUP1 SLOAD PUSH2 0x286 SWAP1 PUSH2 0xF56 JUMP JUMPDEST DUP1 ISZERO PUSH2 0x2D3 JUMPI DUP1 PUSH1 0x1F LT PUSH2 0x2A8 JUMPI PUSH2 0x100 DUP1 DUP4 SLOAD DIV MUL DUP4 MSTORE SWAP2 PUSH1 0x20 ADD SWAP2 PUSH2 0x2D3 JUMP JUMPDEST DUP3 ADD SWAP2 SWAP1 PUSH1 0x0 MSTORE PUSH1 0x20 PUSH1 0x0 KECCAK256 SWAP1 JUMPDEST DUP2 SLOAD DUP2 MSTORE SWAP1 PUSH1 0x1 ADD SWAP1 PUSH1 0x20 ADD DUP1 DUP4 GT PUSH2 0x2B6 JUMPI DUP3 SWAP1 SUB PUSH1 0x1F AND DUP3 ADD SWAP2 JUMPDEST POP POP POP POP POP DUP2 JUMP JUMPDEST PUSH1 0x0 DUP2 PUSH1 0x3 PUSH1 0x0 CALLER PUSH20 0xFFFFFFFFFFFFFFFFFFFFFFFFFFFFFFFFFFFFFFFF AND PUSH20 0xFFFFFFFFFFFFFFFFFFFFFFFFFFFFFFFFFFFFFFFF AND DUP2 MSTORE PUSH1 0x20 ADD SWAP1 DUP2 MSTORE PUSH1 0x20 ADD PUSH1 0x0 KECCAK256 PUSH1 0x0 DUP6 PUSH20 0xFFFFFFFFFFFFFFFFFFFFFFFFFFFFFFFFFFFFFFFF AND PUSH20 0xFFFFFFFFFFFFFFFFFFFFFFFFFFFFFFFFFFFFFFFF AND DUP2 MSTORE PUSH1 0x20 ADD SWAP1 DUP2 MSTORE PUSH1 0x20 ADD PUSH1 0x0 KECCAK256 DUP2 SWAP1 SSTORE POP DUP3 PUSH20 0xFFFFFFFFFFFFFFFFFFFFFFFFFFFFFFFFFFFFFFFF AND CALLER PUSH20 0xFFFFFFFFFFFFFFFFFFFFFFFFFFFFFFFFFFFFFFFF AND PUSH32 0x6E11FB1B7F119E3F2FA29896EF5FDF8B8A2D0D4DF6FE90BA8668E7D8B2FFA25E DUP5 PUSH1 0x40 MLOAD PUSH2 0x3BB SWAP2 SWAP1 PUSH2 0xE1A JUMP JUMPDEST PUSH1 0x40 MLOAD DUP1 SWAP2 SUB SWAP1 LOG3 PUSH1 0x1 SWAP1 POP SWAP3 SWAP2 POP POP JUMP JUMPDEST PUSH1 0x0 DUP2 PUSH1 0x2 PUSH1 0x0 CALLER PUSH20 0xFFFFFFFFFFFFFFFFFFFFFFFFFFFFFFFFFFFFFFFF AND PUSH20 0xFFFFFFFFFFFFFFFFFFFFFFFFFFFFFFFFFFFFFFFF AND DUP2 MSTORE PUSH1 0x20 ADD SWAP1 DUP2 MSTORE PUSH1 0x20 ADD PUSH1 0x0 KECCAK256 SLOAD LT ISZERO PUSH2 0x451 JUMPI PUSH1 0x40 MLOAD PUSH32 0x8C379A000000000000000000000000000000000000000000000000000000000 DUP2 MSTORE PUSH1 0x4 ADD PUSH2 0x448 SWAP1 PUSH2 0xD9A JUMP JUMPDEST PUSH1 0x40 MLOAD DUP1 SWAP2 SUB SWAP1 REVERT JUMPDEST PUSH1 0x0 PUSH20 0xFFFFFFFFFFFFFFFFFFFFFFFFFFFFFFFFFFFFFFFF AND DUP4 PUSH20 0xFFFFFFFFFFFFFFFFFFFFFFFFFFFFFFFFFFFFFFFF AND EQ ISZERO PUSH2 0x4C1 JUMPI PUSH1 0x40 MLOAD PUSH32 0x8C379A000000000000000000000000000000000000000000000000000000000 DUP2 MSTORE PUSH1 0x4 ADD PUSH2 0x4B8 SWAP1 PUSH2 0xDDA JUMP JUMPDEST PUSH1 0x40 MLOAD DUP1 SWAP2 SUB SWAP1 REVERT JUMPDEST DUP2 PUSH1 0x2 PUSH1 0x0 CALLER PUSH20 0xFFFFFFFFFFFFFFFFFFFFFFFFFFFFFFFFFFFFFFFF AND PUSH20 0xFFFFFFFFFFFFFFFFFFFFFFFFFFFFFFFFFFFFFFFF AND DUP2 MSTORE PUSH1 0x20 ADD SWAP1 DUP2 MSTORE PUSH1 0x20 ADD PUSH1 0x0 KECCAK256 PUSH1 0x0 DUP3 DUP3 SLOAD PUSH2 0x510 SWAP2 SWAP1 PUSH2 0xEA7 JUMP JUMPDEST SWAP3 POP POP DUP2 SWAP1 SSTORE POP DUP2 PUSH1 0x2 PUSH1 0x0 DUP6 PUSH20 0xFFFFFFFFFFFFFFFFFFFFFFFFFFFFFFFFFFFFFFFF AND PUSH20 0xFFFFFFFFFFFFFFFFFFFFFFFFFFFFFFFFFFFFFFFF AND DUP2 MSTORE PUSH1 0x20 ADD SWAP1 DUP2 MSTORE PUSH1 0x20 ADD PUSH1 0x0 KECCAK256 PUSH1 0x0 DUP3 DUP3 SLOAD PUSH2 0x566 SWAP2 SWAP1 PUSH2 0xE51 JUMP JUMPDEST SWAP3 POP POP DUP2 SWAP1 SSTORE POP DUP3 PUSH20 0xFFFFFFFFFFFFFFFFFFFFFFFFFFFFFFFFFFFFFFFF AND CALLER PUSH20 0xFFFFFFFFFFFFFFFFFFFFFFFFFFFFFFFFFFFFFFFF AND PUSH32 0xDDF252AD1BE2C89B69C2B068FC378DAA952BA7F163C4A11628F55A4DF523B3EF DUP5 PUSH1 0x40 MLOAD PUSH2 0x5CA SWAP2 SWAP1 PUSH2 0xE1A JUMP JUMPDEST PUSH1 0x40 MLOAD DUP1 SWAP2 SUB SWAP1 LOG3 PUSH1 0x1 SWAP1 POP SWAP3 SWAP2 POP POP JUMP JUMPDEST PUSH1 0x1 SLOAD DUP2 JUMP JUMPDEST PUSH1 0x0 DUP1 PUSH20 0xFFFFFFFFFFFFFFFFFFFFFFFFFFFFFFFFFFFFFFFF AND DUP5 PUSH20 0xFFFFFFFFFFFFFFFFFFFFFFFFFFFFFFFFFFFFFFFF AND EQ ISZERO PUSH2 0x653 JUMPI PUSH1 0x40 MLOAD PUSH32 0x8C379A000000000000000000000000000000000000000000000000000000000 DUP2 MSTORE PUSH1 0x4 ADD PUSH2 0x64A SWAP1 PUSH2 0xDFA JUMP JUMPDEST PUSH1 0x40 MLOAD DUP1 SWAP2 SUB SWAP1 REVERT JUMPDEST PUSH1 0x0 PUSH20 0xFFFFFFFFFFFFFFFFFFFFFFFFFFFFFFFFFFFFFFFF AND DUP4 PUSH20 0xFFFFFFFFFFFFFFFFFFFFFFFFFFFFFFFFFFFFFFFF AND EQ ISZERO PUSH2 0x6C3 JUMPI PUSH1 0x40 MLOAD PUSH32 0x8C379A000000000000000000000000000000000000000000000000000000000 DUP2 MSTORE PUSH1 0x4 ADD PUSH2 0x6BA SWAP1 PUSH2 0xD5A JUMP JUMPDEST PUSH1 0x40 MLOAD DUP1 SWAP2 SUB SWAP1 REVERT JUMPDEST DUP2 PUSH1 0x2 PUSH1 0x0 DUP7 PUSH20 0xFFFFFFFFFFFFFFFFFFFFFFFFFFFFFFFFFFFFFFFF AND PUSH20 0xFFFFFFFFFFFFFFFFFFFFFFFFFFFFFFFFFFFFFFFF AND DUP2 MSTORE PUSH1 0x20 ADD SWAP1 DUP2 MSTORE PUSH1 0x20 ADD PUSH1 0x0 KECCAK256 SLOAD LT ISZERO PUSH2 0x745 JUMPI PUSH1 0x40 MLOAD PUSH32 0x8C379A000000000000000000000000000000000000000000000000000000000 DUP2 MSTORE PUSH1 0x4 ADD PUSH2 0x73C SWAP1 PUSH2 0xDBA JUMP JUMPDEST PUSH1 0x40 MLOAD DUP1 SWAP2 SUB SWAP1 REVERT JUMPDEST DUP2 PUSH1 0x3 PUSH1 0x0 DUP7 PUSH20 0xFFFFFFFFFFFFFFFFFFFFFFFFFFFFFFFFFFFFFFFF AND PUSH20 0xFFFFFFFFFFFFFFFFFFFFFFFFFFFFFFFFFFFFFFFF AND DUP2 MSTORE PUSH1 0x20 ADD SWAP1 DUP2 MSTORE PUSH1 0x20 ADD PUSH1 0x0 KECCAK256 PUSH1 0x0 CALLER PUSH20 0xFFFFFFFFFFFFFFFFFFFFFFFFFFFFFFFFFFFFFFFF AND PUSH20 0xFFFFFFFFFFFFFFFFFFFFFFFFFFFFFFFFFFFFFFFF AND DUP2 MSTORE PUSH1 0x20 ADD SWAP1 DUP2 MSTORE PUSH1 0x20 ADD PUSH1 0x0 KECCAK256 SLOAD LT ISZERO PUSH2 0x804 JUMPI PUSH1 0x40 MLOAD PUSH32 0x8C379A000000000000000000000000000000000000000000000000000000000 DUP2 MSTORE PUSH1 0x4 ADD PUSH2 0x7FB SWAP1 PUSH2 0xD7A JUMP JUMPDEST PUSH1 0x40 MLOAD DUP1 SWAP2 SUB SWAP1 REVERT JUMPDEST DUP2 PUSH1 0x2 PUSH1 0x0 DUP7 PUSH20 0xFFFFFFFFFFFFFFFFFFFFFFFFFFFFFFFFFFFFFFFF AND PUSH20 0xFFFFFFFFFFFFFFFFFFFFFFFFFFFFFFFFFFFFFFFF AND DUP2 MSTORE PUSH1 0x20 ADD SWAP1 DUP2 MSTORE PUSH1 0x20 ADD PUSH1 0x0 KECCAK256 PUSH1 0x0 DUP3 DUP3 SLOAD PUSH2 0x853 SWAP2 SWAP1 PUSH2 0xEA7 JUMP JUMPDEST SWAP3 POP POP DUP2 SWAP1 SSTORE POP DUP2 PUSH1 0x2 PUSH1 0x0 DUP6 PUSH20 0xFFFFFFFFFFFFFFFFFFFFFFFFFFFFFFFFFFFFFFFF AND PUSH20 0xFFFFFFFFFFFFFFFFFFFFFFFFFFFFFFFFFFFFFFFF AND DUP2 MSTORE PUSH1 0x20 ADD SWAP1 DUP2 MSTORE PUSH1 0x20 ADD PUSH1 0x0 KECCAK256 PUSH1 0x0 DUP3 DUP3 SLOAD PUSH2 0x8A9 SWAP2 SWAP1 PUSH2 0xE51 JUMP JUMPDEST SWAP3 POP POP DUP2 SWAP1 SSTORE POP DUP2 PUSH1 0x3 PUSH1 0x0 DUP7 PUSH20 0xFFFFFFFFFFFFFFFFFFFFFFFFFFFFFFFFFFFFFFFF AND PUSH20 0xFFFFFFFFFFFFFFFFFFFFFFFFFFFFFFFFFFFFFFFF AND DUP2 MSTORE PUSH1 0x20 ADD SWAP1 DUP2 MSTORE PUSH1 0x20 ADD PUSH1 0x0 KECCAK256 PUSH1 0x0 CALLER PUSH20 0xFFFFFFFFFFFFFFFFFFFFFFFFFFFFFFFFFFFFFFFF AND PUSH20 0xFFFFFFFFFFFFFFFFFFFFFFFFFFFFFFFFFFFFFFFF AND DUP2 MSTORE PUSH1 0x20 ADD SWAP1 DUP2 MSTORE PUSH1 0x20 ADD PUSH1 0x0 KECCAK256 PUSH1 0x0 DUP3 DUP3 SLOAD PUSH2 0x93C SWAP2 SWAP1 PUSH2 0xEA7 JUMP JUMPDEST SWAP3 POP POP DUP2 SWAP1 SSTORE POP DUP3 PUSH20 0xFFFFFFFFFFFFFFFFFFFFFFFFFFFFFFFFFFFFFFFF AND DUP5 PUSH20 0xFFFFFFFFFFFFFFFFFFFFFFFFFFFFFFFFFFFFFFFF AND PUSH32 0xDDF252AD1BE2C89B69C2B068FC378DAA952BA7F163C4A11628F55A4DF523B3EF DUP5 PUSH1 0x40 MLOAD PUSH2 0x9A0 SWAP2 SWAP1 PUSH2 0xE1A JUMP JUMPDEST PUSH1 0x40 MLOAD DUP1 SWAP2 SUB SWAP1 LOG3 PUSH1 0x1 SWAP1 POP SWAP4 SWAP3 POP POP POP JUMP JUMPDEST PUSH1 0x2 PUSH1 0x20 MSTORE DUP1 PUSH1 0x0 MSTORE PUSH1 0x40 PUSH1 0x0 KECCAK256 PUSH1 0x0 SWAP2 POP SWAP1 POP SLOAD DUP2 JUMP JUMPDEST PUSH1 0x3 PUSH1 0x20 MSTORE DUP2 PUSH1 0x0 MSTORE PUSH1 0x40 PUSH1 0x0 KECCAK256 PUSH1 0x20 MSTORE DUP1 PUSH1 0x0 MSTORE PUSH1 0x40 PUSH1 0x0 KECCAK256 PUSH1 0x0 SWAP2 POP SWAP2 POP POP SLOAD DUP2 JUMP JUMPDEST PUSH1 0x0 PUSH1 0x1 SLOAD SWAP1 POP SWAP1 JUMP JUMPDEST PUSH1 0x0 PUSH1 0x2 PUSH1 0x0 DUP4 PUSH20 0xFFFFFFFFFFFFFFFFFFFFFFFFFFFFFFFFFFFFFFFF AND PUSH20 0xFFFFFFFFFFFFFFFFFFFFFFFFFFFFFFFFFFFFFFFF AND DUP2 MSTORE PUSH1 0x20 ADD SWAP1 DUP2 MSTORE PUSH1 0x20 ADD PUSH1 0x0 KECCAK256 SLOAD SWAP1 POP SWAP2 SWAP1 POP JUMP JUMPDEST PUSH1 0x0 PUSH1 0x3 PUSH1 0x0 DUP5 PUSH20 0xFFFFFFFFFFFFFFFFFFFFFFFFFFFFFFFFFFFFFFFF AND PUSH20 0xFFFFFFFFFFFFFFFFFFFFFFFFFFFFFFFFFFFFFFFF AND DUP2 MSTORE PUSH1 0x20 ADD SWAP1 DUP2 MSTORE PUSH1 0x20 ADD PUSH1 0x0 KECCAK256 PUSH1 0x0 DUP4 PUSH20 0xFFFFFFFFFFFFFFFFFFFFFFFFFFFFFFFFFFFFFFFF AND PUSH20 0xFFFFFFFFFFFFFFFFFFFFFFFFFFFFFFFFFFFFFFFF AND DUP2 MSTORE PUSH1 0x20 ADD SWAP1 DUP2 MSTORE PUSH1 0x20 ADD PUSH1 0x0 KECCAK256 SLOAD SWAP1 POP SWAP3 SWAP2 POP POP JUMP JUMPDEST PUSH1 0x0 DUP2 CALLDATALOAD SWAP1 POP PUSH2 0xAD9 DUP2 PUSH2 0x113E JUMP JUMPDEST SWAP3 SWAP2 POP POP JUMP JUMPDEST PUSH1 0x0 DUP2 CALLDATALOAD SWAP1 POP PUSH2 0xAEE DUP2 PUSH2 0x1155 JUMP JUMPDEST SWAP3 SWAP2 POP POP JUMP JUMPDEST PUSH1 0x0 PUSH1 0x20 DUP3 DUP5 SUB SLT ISZERO PUSH2 0xB0A JUMPI PUSH2 0xB09 PUSH2 0xFE6 JUMP JUMPDEST JUMPDEST PUSH1 0x0 PUSH2 0xB18 DUP5 DUP3 DUP6 ADD PUSH2 0xACA JUMP JUMPDEST SWAP2 POP POP SWAP3 SWAP2 POP POP JUMP JUMPDEST PUSH1 0x0 DUP1 PUSH1 0x40 DUP4 DUP6 SUB SLT ISZERO PUSH2 0xB38 JUMPI PUSH2 0xB37 PUSH2 0xFE6 JUMP JUMPDEST JUMPDEST PUSH1 0x0 PUSH2 0xB46 DUP6 DUP3 DUP7 ADD PUSH2 0xACA JUMP JUMPDEST SWAP3 POP POP PUSH1 0x20 PUSH2 0xB57 DUP6 DUP3 DUP7 ADD PUSH2 0xACA JUMP JUMPDEST SWAP2 POP POP SWAP3 POP SWAP3 SWAP1 POP JUMP JUMPDEST PUSH1 0x0 DUP1 PUSH1 0x0 PUSH1 0x60 DUP5 DUP7 SUB SLT ISZERO PUSH2 0xB7A JUMPI PUSH2 0xB79 PUSH2 0xFE6 JUMP JUMPDEST JUMPDEST PUSH1 0x0 PUSH2 0xB88 DUP7 DUP3 DUP8 ADD PUSH2 0xACA JUMP JUMPDEST SWAP4 POP POP PUSH1 0x20 PUSH2 0xB99 DUP7 DUP3 DUP8 ADD PUSH2 0xACA JUMP JUMPDEST SWAP3 POP POP PUSH1 0x40 PUSH2 0xBAA DUP7 DUP3 DUP8 ADD PUSH2 0xADF JUMP JUMPDEST SWAP2 POP POP SWAP3 POP SWAP3 POP SWAP3 JUMP JUMPDEST PUSH1 0x0 DUP1 PUSH1 0x40 DUP4 DUP6 SUB SLT ISZERO PUSH2 0xBCB JUMPI PUSH2 0xBCA PUSH2 0xFE6 JUMP JUMPDEST JUMPDEST PUSH1 0x0 PUSH2 0xBD9 DUP6 DUP3 DUP7 ADD PUSH2 0xACA JUMP JUMPDEST SWAP3 POP POP PUSH1 0x20 PUSH2 0xBEA DUP6 DUP3 DUP7 ADD PUSH2 0xADF JUMP JUMPDEST SWAP2 POP POP SWAP3 POP SWAP3 SWAP1 POP JUMP JUMPDEST PUSH2 0xBFD DUP2 PUSH2 0xEED JUMP JUMPDEST DUP3 MSTORE POP POP JUMP JUMPDEST PUSH1 0x0 PUSH2 0xC0E DUP3 PUSH2 0xE35 JUMP JUMPDEST PUSH2 0xC18 DUP2 DUP6 PUSH2 0xE40 JUMP JUMPDEST SWAP4 POP PUSH2 0xC28 DUP2 DUP6 PUSH1 0x20 DUP7 ADD PUSH2 0xF23 JUMP JUMPDEST PUSH2 0xC31 DUP2 PUSH2 0xFEB JUMP JUMPDEST DUP5 ADD SWAP2 POP POP SWAP3 SWAP2 POP POP JUMP JUMPDEST PUSH1 0x0 PUSH2 0xC49 PUSH1 0x23 DUP4 PUSH2 0xE40 JUMP JUMPDEST SWAP2 POP PUSH2 0xC54 DUP3 PUSH2 0xFFC JUMP JUMPDEST PUSH1 0x40 DUP3 ADD SWAP1 POP SWAP2 SWAP1 POP JUMP JUMPDEST PUSH1 0x0 PUSH2 0xC6C PUSH1 0x19 DUP4 PUSH2 0xE40 JUMP JUMPDEST SWAP2 POP PUSH2 0xC77 DUP3 PUSH2 0x104B JUMP JUMPDEST PUSH1 0x20 DUP3 ADD SWAP1 POP SWAP2 SWAP1 POP JUMP JUMPDEST PUSH1 0x0 PUSH2 0xC8F PUSH1 0x12 DUP4 PUSH2 0xE40 JUMP JUMPDEST SWAP2 POP PUSH2 0xC9A DUP3 PUSH2 0x1074 JUMP JUMPDEST PUSH1 0x20 DUP3 ADD SWAP1 POP SWAP2 SWAP1 POP JUMP JUMPDEST PUSH1 0x0 PUSH2 0xCB2 PUSH1 0x1B DUP4 PUSH2 0xE40 JUMP JUMPDEST SWAP2 POP PUSH2 0xCBD DUP3 PUSH2 0x109D JUMP JUMPDEST PUSH1 0x20 DUP3 ADD SWAP1 POP SWAP2 SWAP1 POP JUMP JUMPDEST PUSH1 0x0 PUSH2 0xCD5 PUSH1 0x1B DUP4 PUSH2 0xE40 JUMP JUMPDEST SWAP2 POP PUSH2 0xCE0 DUP3 PUSH2 0x10C6 JUMP JUMPDEST PUSH1 0x20 DUP3 ADD SWAP1 POP SWAP2 SWAP1 POP JUMP JUMPDEST PUSH1 0x0 PUSH2 0xCF8 PUSH1 0x25 DUP4 PUSH2 0xE40 JUMP JUMPDEST SWAP2 POP PUSH2 0xD03 DUP3 PUSH2 0x10EF JUMP JUMPDEST PUSH1 0x40 DUP3 ADD SWAP1 POP SWAP2 SWAP1 POP JUMP JUMPDEST PUSH2 0xD17 DUP2 PUSH2 0xF19 JUMP JUMPDEST DUP3 MSTORE POP POP JUMP JUMPDEST PUSH1 0x0 PUSH1 0x20 DUP3 ADD SWAP1 POP PUSH2 0xD32 PUSH1 0x0 DUP4 ADD DUP5 PUSH2 0xBF4 JUMP JUMPDEST SWAP3 SWAP2 POP POP JUMP JUMPDEST PUSH1 0x0 PUSH1 0x20 DUP3 ADD SWAP1 POP DUP2 DUP2 SUB PUSH1 0x0 DUP4 ADD MSTORE PUSH2 0xD52 DUP2 DUP5 PUSH2 0xC03 JUMP JUMPDEST SWAP1 POP SWAP3 SWAP2 POP POP JUMP JUMPDEST PUSH1 0x0 PUSH1 0x20 DUP3 ADD SWAP1 POP DUP2 DUP2 SUB PUSH1 0x0 DUP4 ADD MSTORE PUSH2 0xD73 DUP2 PUSH2 0xC3C JUMP JUMPDEST SWAP1 POP SWAP2 SWAP1 POP JUMP JUMPDEST PUSH1 0x0 PUSH1 0x20 DUP3 ADD SWAP1 POP DUP2 DUP2 SUB PUSH1 0x0 DUP4 ADD MSTORE PUSH2 0xD93 DUP2 PUSH2 0xC5F JUMP JUMPDEST SWAP1 POP SWAP2 SWAP1 POP JUMP JUMPDEST PUSH1 0x0 PUSH1 0x20 DUP3 ADD SWAP1 POP DUP2 DUP2 SUB PUSH1 0x0 DUP4 ADD MSTORE PUSH2 0xDB3 DUP2 PUSH2 0xC82 JUMP JUMPDEST SWAP1 POP SWAP2 SWAP1 POP JUMP JUMPDEST PUSH1 0x0 PUSH1 0x20 DUP3 ADD SWAP1 POP DUP2 DUP2 SUB PUSH1 0x0 DUP4 ADD MSTORE PUSH2 0xDD3 DUP2 PUSH2 0xCA5 JUMP JUMPDEST SWAP1 POP SWAP2 SWAP1 POP JUMP JUMPDEST PUSH1 0x0 PUSH1 0x20 DUP3 ADD SWAP1 POP DUP2 DUP2 SUB PUSH1 0x0 DUP4 ADD MSTORE PUSH2 0xDF3 DUP2 PUSH2 0xCC8 JUMP JUMPDEST SWAP1 POP SWAP2 SWAP1 POP JUMP JUMPDEST PUSH1 0x0 PUSH1 0x20 DUP3 ADD SWAP1 POP DUP2 DUP2 SUB PUSH1 0x0 DUP4 ADD MSTORE PUSH2 0xE13 DUP2 PUSH2 0xCEB JUMP JUMPDEST SWAP1 POP SWAP2 SWAP1 POP JUMP JUMPDEST PUSH1 0x0 PUSH1 0x20 DUP3 ADD SWAP1 POP PUSH2 0xE2F PUSH1 0x0 DUP4 ADD DUP5 PUSH2 0xD0E JUMP JUMPDEST SWAP3 SWAP2 POP POP JUMP JUMPDEST PUSH1 0x0 DUP2 MLOAD SWAP1 POP SWAP2 SWAP1 POP JUMP JUMPDEST PUSH1 0x0 DUP3 DUP3 MSTORE PUSH1 0x20 DUP3 ADD SWAP1 POP SWAP3 SWAP2 POP POP JUMP JUMPDEST PUSH1 0x0 PUSH2 0xE5C DUP3 PUSH2 0xF19 JUMP JUMPDEST SWAP2 POP PUSH2 0xE67 DUP4 PUSH2 0xF19 JUMP JUMPDEST SWAP3 POP DUP3 PUSH32 0xFFFFFFFFFFFFFFFFFFFFFFFFFFFFFFFFFFFFFFFFFFFFFFFFFFFFFFFFFFFFFFFF SUB DUP3 GT ISZERO PUSH2 0xE9C JUMPI PUSH2 0xE9B PUSH2 0xF88 JUMP JUMPDEST JUMPDEST DUP3 DUP3 ADD SWAP1 POP SWAP3 SWAP2 POP POP JUMP JUMPDEST PUSH1 0x0 PUSH2 0xEB2 DUP3 PUSH2 0xF19 JUMP JUMPDEST SWAP2 POP PUSH2 0xEBD DUP4 PUSH2 0xF19 JUMP JUMPDEST SWAP3 POP DUP3 DUP3 LT ISZERO PUSH2 0xED0 JUMPI PUSH2 0xECF PUSH2 0xF88 JUMP JUMPDEST JUMPDEST DUP3 DUP3 SUB SWAP1 POP SWAP3 SWAP2 POP POP JUMP JUMPDEST PUSH1 0x0 PUSH2 0xEE6 DUP3 PUSH2 0xEF9 JUMP JUMPDEST SWAP1 POP SWAP2 SWAP1 POP JUMP JUMPDEST PUSH1 0x0 DUP2 ISZERO ISZERO SWAP1 POP SWAP2 SWAP1 POP JUMP JUMPDEST PUSH1 0x0 PUSH20 0xFFFFFFFFFFFFFFFFFFFFFFFFFFFFFFFFFFFFFFFF DUP3 AND SWAP1 POP SWAP2 SWAP1 POP JUMP JUMPDEST PUSH1 0x0 DUP2 SWAP1 POP SWAP2 SWAP1 POP JUMP JUMPDEST PUSH1 0x0 JUMPDEST DUP4 DUP2 LT ISZERO PUSH2 0xF41 JUMPI DUP1 DUP3 ADD MLOAD DUP2 DUP5 ADD MSTORE PUSH1 0x20 DUP2 ADD SWAP1 POP PUSH2 0xF26 JUMP JUMPDEST DUP4 DUP2 GT ISZERO PUSH2 0xF50 JUMPI PUSH1 0x0 DUP5 DUP5 ADD MSTORE JUMPDEST POP POP POP POP JUMP JUMPDEST PUSH1 0x0 PUSH1 0x2 DUP3 DIV SWAP1 POP PUSH1 0x1 DUP3 AND DUP1 PUSH2 0xF6E JUMPI PUSH1 0x7F DUP3 AND SWAP2 POP JUMPDEST PUSH1 0x20 DUP3 LT DUP2 EQ ISZERO PUSH2 0xF82 JUMPI PUSH2 0xF81 PUSH2 0xFB7 JUMP JUMPDEST JUMPDEST POP SWAP2 SWAP1 POP JUMP JUMPDEST PUSH32 0x4E487B7100000000000000000000000000000000000000000000000000000000 PUSH1 0x0 MSTORE PUSH1 0x11 PUSH1 0x4 MSTORE PUSH1 0x24 PUSH1 0x0 REVERT JUMPDEST PUSH32 0x4E487B7100000000000000000000000000000000000000000000000000000000 PUSH1 0x0 MSTORE PUSH1 0x22 PUSH1 0x4 MSTORE PUSH1 0x24 PUSH1 0x0 REVERT JUMPDEST PUSH1 0x0 DUP1 REVERT JUMPDEST PUSH1 0x0 PUSH1 0x1F NOT PUSH1 0x1F DUP4 ADD AND SWAP1 POP SWAP2 SWAP1 POP JUMP JUMPDEST PUSH32 0x45524332303A207472616E7366657220746F20746865207A65726F2061646472 PUSH1 0x0 DUP3 ADD MSTORE PUSH32 0x6573730000000000000000000000000000000000000000000000000000000000 PUSH1 0x20 DUP3 ADD MSTORE POP JUMP JUMPDEST PUSH32 0x45524332303A20616C6C6F77616E636520657863656564656400000000000000 PUSH1 0x0 DUP3 ADD MSTORE POP JUMP JUMPDEST PUSH32 0x496E73756666696369656E742046756E64730000000000000000000000000000 PUSH1 0x0 DUP3 ADD MSTORE POP JUMP JUMPDEST PUSH32 0x45524332303A20696E73756666696369656E742062616C616E63650000000000 PUSH1 0x0 DUP3 ADD MSTORE POP JUMP JUMPDEST PUSH32 0x496E76616C69642064657374696E6174696F6E20616464726573730000000000 PUSH1 0x0 DUP3 ADD MSTORE POP JUMP JUMPDEST PUSH32 0x45524332303A207472616E736665722066726F6D20746865207A65726F206164 PUSH1 0x0 DUP3 ADD MSTORE PUSH32 0x6472657373000000000000000000000000000000000000000000000000000000 PUSH1 0x20 DUP3 ADD MSTORE POP JUMP JUMPDEST PUSH2 0x1147 DUP2 PUSH2 0xEDB JUMP JUMPDEST DUP2 EQ PUSH2 0x1152 JUMPI PUSH1 0x0 DUP1 REVERT JUMPDEST POP JUMP JUMPDEST PUSH2 0x115E DUP2 PUSH2 0xF19 JUMP JUMPDEST DUP2 EQ PUSH2 0x1169 JUMPI PUSH1 0x0 DUP1 REVERT JUMPDEST POP JUMP INVALID LOG2 PUSH5 0x6970667358 0x22 SLT KECCAK256 0xDA 0xC1 0xD7 0xE6 DUP15 0xED 0x4B 0xB3 0xAB 0x2F NOT 0xD9 EXTCODECOPY PUSH28 0x62BE2F904319665241A5E2BD9FBA6991D95364736F6C634300080700 CALLER "
				},
				"gasEstimates": {
					"creation": {
						"codeDepositCost": "902800",
						"executionCost": "infinite",
						"totalCost": "infinite"
					},
					"external": {
						"allowance(address,address)": "infinite",
						"allowances(address,address)": "infinite",
						"approve(address,uint256)": "infinite",
						"balanceOfToken(address)": "2907",
						"balances(address)": "2814",
						"name()": "infinite",
						"totalOfSupply()": "2481",
						"totalSupply()": "2496",
						"transferFrom(address,address,uint256)": "infinite",
						"transferToken(address,uint256)": "infinite"
					}
				},
				"methodIdentifiers": {
					"allowance(address,address)": "dd62ed3e",
					"allowances(address,address)": "55b6ed5c",
					"approve(address,uint256)": "095ea7b3",
					"balanceOfToken(address)": "b99152d0",
					"balances(address)": "27e235e3",
					"name()": "06fdde03",
					"totalOfSupply()": "9b5f2af4",
					"totalSupply()": "18160ddd",
					"transferFrom(address,address,uint256)": "23b872dd",
					"transferToken(address,uint256)": "1072cbea"
				}
			},
			"storageLayout": {
				"storage": [
					{
						"astId": 5,
						"contract": "contracts/BlueToken.sol:BlueToken",
						"label": "name",
						"offset": 0,
						"slot": "0",
						"type": "t_string_storage"
					},
					{
						"astId": 7,
						"contract": "contracts/BlueToken.sol:BlueToken",
						"label": "totalSupply",
						"offset": 0,
						"slot": "1",
						"type": "t_uint256"
					},
					{
						"astId": 11,
						"contract": "contracts/BlueToken.sol:BlueToken",
						"label": "balances",
						"offset": 0,
						"slot": "2",
						"type": "t_mapping(t_address,t_uint256)"
					},
					{
						"astId": 17,
						"contract": "contracts/BlueToken.sol:BlueToken",
						"label": "allowances",
						"offset": 0,
						"slot": "3",
						"type": "t_mapping(t_address,t_mapping(t_address,t_uint256))"
					}
				],
				"types": {
					"t_address": {
						"encoding": "inplace",
						"label": "address",
						"numberOfBytes": "20"
					},
					"t_mapping(t_address,t_mapping(t_address,t_uint256))": {
						"encoding": "mapping",
						"key": "t_address",
						"label": "mapping(address => mapping(address => uint256))",
						"numberOfBytes": "32",
						"value": "t_mapping(t_address,t_uint256)"
					},
					"t_mapping(t_address,t_uint256)": {
						"encoding": "mapping",
						"key": "t_address",
						"label": "mapping(address => uint256)",
						"numberOfBytes": "32",
						"value": "t_uint256"
					},
					"t_string_storage": {
						"encoding": "bytes",
						"label": "string",
						"numberOfBytes": "32"
					},
					"t_uint256": {
						"encoding": "inplace",
						"label": "uint256",
						"numberOfBytes": "32"
					}
				}
			},
			"userdoc": {
				"kind": "user",
				"methods": {},
				"notice": "created by KATIPOGLU ",
				"version": 1
			}
		}
	}
}